{"abi":[{"type":"constructor","inputs":[],"stateMutability":"nonpayable"},{"type":"function","name":"ADMIN_ROLE","inputs":[],"outputs":[{"name":"","type":"bytes32","internalType":"bytes32"}],"stateMutability":"view"},{"type":"function","name":"DEFAULT_ADMIN_ROLE","inputs":[],"outputs":[{"name":"","type":"bytes32","internalType":"bytes32"}],"stateMutability":"view"},{"type":"function","name":"KNOWLEDGE_MANAGER_ROLE","inputs":[],"outputs":[{"name":"","type":"bytes32","internalType":"bytes32"}],"stateMutability":"view"},{"type":"function","name":"MINTER_ROLE","inputs":[],"outputs":[{"name":"","type":"bytes32","internalType":"bytes32"}],"stateMutability":"view"},{"type":"function","name":"MODERATOR_ROLE","inputs":[],"outputs":[{"name":"","type":"bytes32","internalType":"bytes32"}],"stateMutability":"view"},{"type":"function","name":"PERMISSION_AUTHORIZE","inputs":[],"outputs":[{"name":"","type":"uint256","internalType":"uint256"}],"stateMutability":"view"},{"type":"function","name":"PERMISSION_BURN","inputs":[],"outputs":[{"name":"","type":"uint256","internalType":"uint256"}],"stateMutability":"view"},{"type":"function","name":"PERMISSION_READ","inputs":[],"outputs":[{"name":"","type":"uint256","internalType":"uint256"}],"stateMutability":"view"},{"type":"function","name":"PERMISSION_TRANSFER","inputs":[],"outputs":[{"name":"","type":"uint256","internalType":"uint256"}],"stateMutability":"view"},{"type":"function","name":"PERMISSION_WRITE","inputs":[],"outputs":[{"name":"","type":"uint256","internalType":"uint256"}],"stateMutability":"view"},{"type":"function","name":"VERIFIER_ROLE","inputs":[],"outputs":[{"name":"","type":"bytes32","internalType":"bytes32"}],"stateMutability":"view"},{"type":"function","name":"addEncryptedKnowledgeChunk","inputs":[{"name":"tokenId","type":"uint256","internalType":"uint256"},{"name":"contentHash","type":"bytes32","internalType":"bytes32"},{"name":"semanticHash","type":"bytes32","internalType":"bytes32"},{"name":"encryptedChunkKey","type":"string","internalType":"string"}],"outputs":[],"stateMutability":"nonpayable"},{"type":"function","name":"addKnowledge","inputs":[{"name":"tokenId","type":"uint256","internalType":"uint256"},{"name":"knowledgeHash","type":"string","internalType":"string"},{"name":"metadata","type":"tuple","internalType":"struct IntellifyINFT.KnowledgeMetadata","components":[{"name":"contentType","type":"string","internalType":"string"},{"name":"fileSize","type":"uint256","internalType":"uint256"},{"name":"encryptionKey","type":"string","internalType":"string"},{"name":"uploadTimestamp","type":"uint256","internalType":"uint256"},{"name":"isEncrypted","type":"bool","internalType":"bool"},{"name":"knowledgeIndexHash","type":"bytes32","internalType":"bytes32"},{"name":"indexEncryptionKey","type":"string","internalType":"string"}]}],"outputs":[],"stateMutability":"nonpayable"},{"type":"function","name":"aiStates","inputs":[{"name":"","type":"uint256","internalType":"uint256"}],"outputs":[{"name":"modelVersion","type":"string","internalType":"string"},{"name":"interactionCount","type":"uint256","internalType":"uint256"},{"name":"lastUpdated","type":"uint256","internalType":"uint256"},{"name":"isActive","type":"bool","internalType":"bool"},{"name":"owner","type":"address","internalType":"address"},{"name":"encryptedStateHash","type":"bytes32","internalType":"bytes32"},{"name":"stateEncryptionKey","type":"string","internalType":"string"}],"stateMutability":"view"},{"type":"function","name":"approve","inputs":[{"name":"to","type":"address","internalType":"address"},{"name":"tokenId","type":"uint256","internalType":"uint256"}],"outputs":[],"stateMutability":"nonpayable"},{"type":"function","name":"authorizeUser","inputs":[{"name":"tokenId","type":"uint256","internalType":"uint256"},{"name":"user","type":"address","internalType":"address"}],"outputs":[],"stateMutability":"nonpayable"},{"type":"function","name":"balanceOf","inputs":[{"name":"owner","type":"address","internalType":"address"}],"outputs":[{"name":"","type":"uint256","internalType":"uint256"}],"stateMutability":"view"},{"type":"function","name":"burn","inputs":[{"name":"tokenId","type":"uint256","internalType":"uint256"}],"outputs":[],"stateMutability":"nonpayable"},{"type":"function","name":"canTransfer","inputs":[{"name":"tokenId","type":"uint256","internalType":"uint256"}],"outputs":[{"name":"","type":"bool","internalType":"bool"}],"stateMutability":"view"},{"type":"function","name":"deactivateINFT","inputs":[{"name":"tokenId","type":"uint256","internalType":"uint256"}],"outputs":[],"stateMutability":"nonpayable"},{"type":"function","name":"defaultTransferCooldown","inputs":[],"outputs":[{"name":"","type":"uint256","internalType":"uint256"}],"stateMutability":"view"},{"type":"function","name":"emergencyPause","inputs":[],"outputs":[{"name":"","type":"bool","internalType":"bool"}],"stateMutability":"view"},{"type":"function","name":"getAIState","inputs":[{"name":"tokenId","type":"uint256","internalType":"uint256"}],"outputs":[{"name":"","type":"tuple","internalType":"struct IntellifyINFT.AIState","components":[{"name":"modelVersion","type":"string","internalType":"string"},{"name":"knowledgeHashes","type":"string[]","internalType":"string[]"},{"name":"interactionCount","type":"uint256","internalType":"uint256"},{"name":"lastUpdated","type":"uint256","internalType":"uint256"},{"name":"isActive","type":"bool","internalType":"bool"},{"name":"owner","type":"address","internalType":"address"},{"name":"encryptedStateHash","type":"bytes32","internalType":"bytes32"},{"name":"stateEncryptionKey","type":"string","internalType":"string"}]}],"stateMutability":"view"},{"type":"function","name":"getApproved","inputs":[{"name":"tokenId","type":"uint256","internalType":"uint256"}],"outputs":[{"name":"","type":"address","internalType":"address"}],"stateMutability":"view"},{"type":"function","name":"getAuthorizedUsers","inputs":[{"name":"tokenId","type":"uint256","internalType":"uint256"}],"outputs":[{"name":"","type":"address[]","internalType":"address[]"}],"stateMutability":"view"},{"type":"function","name":"getDataHashes","inputs":[{"name":"tokenId","type":"uint256","internalType":"uint256"}],"outputs":[{"name":"","type":"bytes32[]","internalType":"bytes32[]"}],"stateMutability":"view"},{"type":"function","name":"getEncryptedKnowledgeIndex","inputs":[{"name":"tokenId","type":"uint256","internalType":"uint256"}],"outputs":[{"name":"","type":"tuple","internalType":"struct IntellifyINFT.EncryptedKnowledgeIndex","components":[{"name":"contentHashes","type":"bytes32[]","internalType":"bytes32[]"},{"name":"semanticHashes","type":"bytes32[]","internalType":"bytes32[]"},{"name":"indexStructureHash","type":"bytes32","internalType":"bytes32"},{"name":"masterEncryptionKey","type":"string","internalType":"string"},{"name":"totalChunks","type":"uint256","internalType":"uint256"},{"name":"lastIndexUpdate","type":"uint256","internalType":"uint256"},{"name":"isFullyEncrypted","type":"bool","internalType":"bool"}]}],"stateMutability":"view"},{"type":"function","name":"getEncryptedModelState","inputs":[{"name":"tokenId","type":"uint256","internalType":"uint256"}],"outputs":[{"name":"","type":"tuple","internalType":"struct IntellifyINFT.EncryptedModelState","components":[{"name":"weightsHash","type":"bytes32","internalType":"bytes32"},{"name":"configHash","type":"bytes32","internalType":"bytes32"},{"name":"memoryHash","type":"bytes32","internalType":"bytes32"},{"name":"contextHash","type":"bytes32","internalType":"bytes32"},{"name":"stateEncryptionKey","type":"string","internalType":"string"},{"name":"stateVersion","type":"uint256","internalType":"uint256"},{"name":"lastStateUpdate","type":"uint256","internalType":"uint256"},{"name":"isStatefulModel","type":"bool","internalType":"bool"}]}],"stateMutability":"view"},{"type":"function","name":"getEncryptionVersion","inputs":[{"name":"tokenId","type":"uint256","internalType":"uint256"}],"outputs":[{"name":"","type":"uint256","internalType":"uint256"}],"stateMutability":"view"},{"type":"function","name":"getKnowledgeHashes","inputs":[{"name":"tokenId","type":"uint256","internalType":"uint256"}],"outputs":[{"name":"","type":"string[]","internalType":"string[]"}],"stateMutability":"view"},{"type":"function","name":"getKnowledgeIndexSummary","inputs":[{"name":"tokenId","type":"uint256","internalType":"uint256"}],"outputs":[{"name":"totalChunks","type":"uint256","internalType":"uint256"},{"name":"lastUpdate","type":"uint256","internalType":"uint256"},{"name":"isEncrypted","type":"bool","internalType":"bool"}],"stateMutability":"view"},{"type":"function","name":"getKnowledgeMetadata","inputs":[{"name":"tokenId","type":"uint256","internalType":"uint256"}],"outputs":[{"name":"","type":"tuple[]","internalType":"struct IntellifyINFT.KnowledgeMetadata[]","components":[{"name":"contentType","type":"string","internalType":"string"},{"name":"fileSize","type":"uint256","internalType":"uint256"},{"name":"encryptionKey","type":"string","internalType":"string"},{"name":"uploadTimestamp","type":"uint256","internalType":"uint256"},{"name":"isEncrypted","type":"bool","internalType":"bool"},{"name":"knowledgeIndexHash","type":"bytes32","internalType":"bytes32"},{"name":"indexEncryptionKey","type":"string","internalType":"string"}]}],"stateMutability":"view"},{"type":"function","name":"getMetadataURI","inputs":[{"name":"tokenId","type":"uint256","internalType":"uint256"}],"outputs":[{"name":"","type":"string","internalType":"string"}],"stateMutability":"view"},{"type":"function","name":"getModelStateSummary","inputs":[{"name":"tokenId","type":"uint256","internalType":"uint256"}],"outputs":[{"name":"stateVersion","type":"uint256","internalType":"uint256"},{"name":"lastUpdate","type":"uint256","internalType":"uint256"},{"name":"isStateful","type":"bool","internalType":"bool"}],"stateMutability":"view"},{"type":"function","name":"getPrivateMetadata","inputs":[{"name":"tokenId","type":"uint256","internalType":"uint256"}],"outputs":[{"name":"","type":"tuple","internalType":"struct IntellifyINFT.PrivateMetadata","components":[{"name":"dataHashes","type":"bytes32[]","internalType":"bytes32[]"},{"name":"metadataURI","type":"string","internalType":"string"},{"name":"lastUpdate","type":"uint256","internalType":"uint256"},{"name":"isEncrypted","type":"bool","internalType":"bool"}]}],"stateMutability":"view"},{"type":"function","name":"getPrivateMetadataLastUpdate","inputs":[{"name":"tokenId","type":"uint256","internalType":"uint256"}],"outputs":[{"name":"","type":"uint256","internalType":"uint256"}],"stateMutability":"view"},{"type":"function","name":"getRoleAdmin","inputs":[{"name":"role","type":"bytes32","internalType":"bytes32"}],"outputs":[{"name":"","type":"bytes32","internalType":"bytes32"}],"stateMutability":"view"},{"type":"function","name":"getTokenRoleMembers","inputs":[{"name":"tokenId","type":"uint256","internalType":"uint256"},{"name":"role","type":"bytes32","internalType":"bytes32"}],"outputs":[{"name":"","type":"address[]","internalType":"address[]"}],"stateMutability":"view"},{"type":"function","name":"getTokenSecurityStatus","inputs":[{"name":"tokenId","type":"uint256","internalType":"uint256"}],"outputs":[{"name":"frozen","type":"bool","internalType":"bool"},{"name":"cooldownExpiry","type":"uint256","internalType":"uint256"},{"name":"canTransferNow","type":"bool","internalType":"bool"},{"name":"ownerBlacklisted","type":"bool","internalType":"bool"}],"stateMutability":"view"},{"type":"function","name":"getTransferCooldown","inputs":[{"name":"tokenId","type":"uint256","internalType":"uint256"}],"outputs":[{"name":"","type":"uint256","internalType":"uint256"}],"stateMutability":"view"},{"type":"function","name":"getUserAccessKey","inputs":[{"name":"tokenId","type":"uint256","internalType":"uint256"},{"name":"user","type":"address","internalType":"address"}],"outputs":[{"name":"","type":"bytes32","internalType":"bytes32"}],"stateMutability":"view"},{"type":"function","name":"getUserINFTs","inputs":[{"name":"user","type":"address","internalType":"address"}],"outputs":[{"name":"","type":"uint256[]","internalType":"uint256[]"}],"stateMutability":"view"},{"type":"function","name":"grantRole","inputs":[{"name":"role","type":"bytes32","internalType":"bytes32"},{"name":"account","type":"address","internalType":"address"}],"outputs":[],"stateMutability":"nonpayable"},{"type":"function","name":"grantTokenRole","inputs":[{"name":"tokenId","type":"uint256","internalType":"uint256"},{"name":"role","type":"bytes32","internalType":"bytes32"},{"name":"account","type":"address","internalType":"address"}],"outputs":[],"stateMutability":"nonpayable"},{"type":"function","name":"grantUserAccessKey","inputs":[{"name":"tokenId","type":"uint256","internalType":"uint256"},{"name":"user","type":"address","internalType":"address"},{"name":"encryptedAccessKey","type":"bytes32","internalType":"bytes32"}],"outputs":[],"stateMutability":"nonpayable"},{"type":"function","name":"hasRole","inputs":[{"name":"role","type":"bytes32","internalType":"bytes32"},{"name":"account","type":"address","internalType":"address"}],"outputs":[{"name":"","type":"bool","internalType":"bool"}],"stateMutability":"view"},{"type":"function","name":"hasTokenRole","inputs":[{"name":"tokenId","type":"uint256","internalType":"uint256"},{"name":"role","type":"bytes32","internalType":"bytes32"},{"name":"account","type":"address","internalType":"address"}],"outputs":[{"name":"","type":"bool","internalType":"bool"}],"stateMutability":"view"},{"type":"function","name":"isAddressBlacklisted","inputs":[{"name":"account","type":"address","internalType":"address"}],"outputs":[{"name":"","type":"bool","internalType":"bool"}],"stateMutability":"view"},{"type":"function","name":"isApprovedForAll","inputs":[{"name":"owner","type":"address","internalType":"address"},{"name":"operator","type":"address","internalType":"address"}],"outputs":[{"name":"","type":"bool","internalType":"bool"}],"stateMutability":"view"},{"type":"function","name":"isAuthorized","inputs":[{"name":"tokenId","type":"uint256","internalType":"uint256"},{"name":"user","type":"address","internalType":"address"}],"outputs":[{"name":"","type":"bool","internalType":"bool"}],"stateMutability":"view"},{"type":"function","name":"isContentHashVerified","inputs":[{"name":"tokenId","type":"uint256","internalType":"uint256"},{"name":"contentHash","type":"bytes32","internalType":"bytes32"}],"outputs":[{"name":"","type":"bool","internalType":"bool"}],"stateMutability":"view"},{"type":"function","name":"isKnowledgeHashUsed","inputs":[{"name":"knowledgeHash","type":"string","internalType":"string"}],"outputs":[{"name":"","type":"bool","internalType":"bool"}],"stateMutability":"view"},{"type":"function","name":"isMetadataEncrypted","inputs":[{"name":"tokenId","type":"uint256","internalType":"uint256"}],"outputs":[{"name":"","type":"bool","internalType":"bool"}],"stateMutability":"view"},{"type":"function","name":"isTokenFrozen","inputs":[{"name":"tokenId","type":"uint256","internalType":"uint256"}],"outputs":[{"name":"","type":"bool","internalType":"bool"}],"stateMutability":"view"},{"type":"function","name":"knowledgeMetadata","inputs":[{"name":"","type":"uint256","internalType":"uint256"},{"name":"","type":"uint256","internalType":"uint256"}],"outputs":[{"name":"contentType","type":"string","internalType":"string"},{"name":"fileSize","type":"uint256","internalType":"uint256"},{"name":"encryptionKey","type":"string","internalType":"string"},{"name":"uploadTimestamp","type":"uint256","internalType":"uint256"},{"name":"isEncrypted","type":"bool","internalType":"bool"},{"name":"knowledgeIndexHash","type":"bytes32","internalType":"bytes32"},{"name":"indexEncryptionKey","type":"string","internalType":"string"}],"stateMutability":"view"},{"type":"function","name":"mintINFT","inputs":[{"name":"to","type":"address","internalType":"address"},{"name":"metadataURI","type":"string","internalType":"string"},{"name":"knowledgeHash","type":"string","internalType":"string"},{"name":"modelVersion","type":"string","internalType":"string"}],"outputs":[{"name":"","type":"uint256","internalType":"uint256"}],"stateMutability":"nonpayable"},{"type":"function","name":"name","inputs":[],"outputs":[{"name":"","type":"string","internalType":"string"}],"stateMutability":"view"},{"type":"function","name":"owner","inputs":[],"outputs":[{"name":"","type":"address","internalType":"address"}],"stateMutability":"view"},{"type":"function","name":"ownerOf","inputs":[{"name":"tokenId","type":"uint256","internalType":"uint256"}],"outputs":[{"name":"","type":"address","internalType":"address"}],"stateMutability":"view"},{"type":"function","name":"paused","inputs":[],"outputs":[{"name":"","type":"bool","internalType":"bool"}],"stateMutability":"view"},{"type":"function","name":"reactivateINFT","inputs":[{"name":"tokenId","type":"uint256","internalType":"uint256"}],"outputs":[],"stateMutability":"nonpayable"},{"type":"function","name":"recordInteraction","inputs":[{"name":"tokenId","type":"uint256","internalType":"uint256"},{"name":"interactionType","type":"string","internalType":"string"}],"outputs":[],"stateMutability":"nonpayable"},{"type":"function","name":"renounceOwnership","inputs":[],"outputs":[],"stateMutability":"nonpayable"},{"type":"function","name":"renounceRole","inputs":[{"name":"role","type":"bytes32","internalType":"bytes32"},{"name":"callerConfirmation","type":"address","internalType":"address"}],"outputs":[],"stateMutability":"nonpayable"},{"type":"function","name":"revokeRole","inputs":[{"name":"role","type":"bytes32","internalType":"bytes32"},{"name":"account","type":"address","internalType":"address"}],"outputs":[],"stateMutability":"nonpayable"},{"type":"function","name":"revokeTokenRole","inputs":[{"name":"tokenId","type":"uint256","internalType":"uint256"},{"name":"role","type":"bytes32","internalType":"bytes32"},{"name":"account","type":"address","internalType":"address"}],"outputs":[],"stateMutability":"nonpayable"},{"type":"function","name":"revokeUser","inputs":[{"name":"tokenId","type":"uint256","internalType":"uint256"},{"name":"user","type":"address","internalType":"address"}],"outputs":[],"stateMutability":"nonpayable"},{"type":"function","name":"revokeUserAccessKey","inputs":[{"name":"tokenId","type":"uint256","internalType":"uint256"},{"name":"user","type":"address","internalType":"address"}],"outputs":[],"stateMutability":"nonpayable"},{"type":"function","name":"safeTransferFrom","inputs":[{"name":"from","type":"address","internalType":"address"},{"name":"to","type":"address","internalType":"address"},{"name":"tokenId","type":"uint256","internalType":"uint256"}],"outputs":[],"stateMutability":"nonpayable"},{"type":"function","name":"safeTransferFrom","inputs":[{"name":"from","type":"address","internalType":"address"},{"name":"to","type":"address","internalType":"address"},{"name":"tokenId","type":"uint256","internalType":"uint256"},{"name":"data","type":"bytes","internalType":"bytes"}],"outputs":[],"stateMutability":"nonpayable"},{"type":"function","name":"setAddressBlacklisted","inputs":[{"name":"account","type":"address","internalType":"address"},{"name":"blacklisted","type":"bool","internalType":"bool"}],"outputs":[],"stateMutability":"nonpayable"},{"type":"function","name":"setApprovalForAll","inputs":[{"name":"operator","type":"address","internalType":"address"},{"name":"approved","type":"bool","internalType":"bool"}],"outputs":[],"stateMutability":"nonpayable"},{"type":"function","name":"setDefaultTransferCooldown","inputs":[{"name":"cooldownPeriod","type":"uint256","internalType":"uint256"}],"outputs":[],"stateMutability":"nonpayable"},{"type":"function","name":"setEmergencyPause","inputs":[{"name":"paused","type":"bool","internalType":"bool"}],"outputs":[],"stateMutability":"nonpayable"},{"type":"function","name":"setMetadataURI","inputs":[{"name":"tokenId","type":"uint256","internalType":"uint256"},{"name":"uri","type":"string","internalType":"string"}],"outputs":[],"stateMutability":"nonpayable"},{"type":"function","name":"setTokenFrozen","inputs":[{"name":"tokenId","type":"uint256","internalType":"uint256"},{"name":"frozen","type":"bool","internalType":"bool"}],"outputs":[],"stateMutability":"nonpayable"},{"type":"function","name":"setTransferCooldown","inputs":[{"name":"tokenId","type":"uint256","internalType":"uint256"},{"name":"cooldownPeriod","type":"uint256","internalType":"uint256"}],"outputs":[],"stateMutability":"nonpayable"},{"type":"function","name":"supportsInterface","inputs":[{"name":"interfaceId","type":"bytes4","internalType":"bytes4"}],"outputs":[{"name":"","type":"bool","internalType":"bool"}],"stateMutability":"view"},{"type":"function","name":"symbol","inputs":[],"outputs":[{"name":"","type":"string","internalType":"string"}],"stateMutability":"view"},{"type":"function","name":"tokenURI","inputs":[{"name":"tokenId","type":"uint256","internalType":"uint256"}],"outputs":[{"name":"","type":"string","internalType":"string"}],"stateMutability":"view"},{"type":"function","name":"totalSupply","inputs":[],"outputs":[{"name":"","type":"uint256","internalType":"uint256"}],"stateMutability":"view"},{"type":"function","name":"transferFrom","inputs":[{"name":"from","type":"address","internalType":"address"},{"name":"to","type":"address","internalType":"address"},{"name":"tokenId","type":"uint256","internalType":"uint256"}],"outputs":[],"stateMutability":"nonpayable"},{"type":"function","name":"transferOwnership","inputs":[{"name":"newOwner","type":"address","internalType":"address"}],"outputs":[],"stateMutability":"nonpayable"},{"type":"function","name":"updateEncryptedModelState","inputs":[{"name":"tokenId","type":"uint256","internalType":"uint256"},{"name":"weightsHash","type":"bytes32","internalType":"bytes32"},{"name":"configHash","type":"bytes32","internalType":"bytes32"},{"name":"memoryHash","type":"bytes32","internalType":"bytes32"},{"name":"contextHash","type":"bytes32","internalType":"bytes32"}],"outputs":[],"stateMutability":"nonpayable"},{"type":"function","name":"updateEncryptionVersion","inputs":[{"name":"tokenId","type":"uint256","internalType":"uint256"},{"name":"newVersion","type":"uint256","internalType":"uint256"}],"outputs":[],"stateMutability":"nonpayable"},{"type":"function","name":"updateMetadata","inputs":[{"name":"tokenId","type":"uint256","internalType":"uint256"},{"name":"newDataHashes","type":"bytes32[]","internalType":"bytes32[]"}],"outputs":[],"stateMutability":"nonpayable"},{"type":"function","name":"updateModelVersion","inputs":[{"name":"tokenId","type":"uint256","internalType":"uint256"},{"name":"newModelVersion","type":"string","internalType":"string"}],"outputs":[],"stateMutability":"nonpayable"},{"type":"function","name":"usedKnowledgeHashes","inputs":[{"name":"","type":"string","internalType":"string"}],"outputs":[{"name":"","type":"bool","internalType":"bool"}],"stateMutability":"view"},{"type":"function","name":"userINFTs","inputs":[{"name":"","type":"address","internalType":"address"},{"name":"","type":"uint256","internalType":"uint256"}],"outputs":[{"name":"","type":"uint256","internalType":"uint256"}],"stateMutability":"view"},{"type":"function","name":"verifyOwnership","inputs":[{"name":"tokenId","type":"uint256","internalType":"uint256"},{"name":"dataHashes","type":"bytes32[]","internalType":"bytes32[]"},{"name":"proof","type":"bytes","internalType":"bytes"}],"outputs":[{"name":"","type":"tuple","internalType":"struct IERC7857Verification.VerificationResult","components":[{"name":"success","type":"bool","internalType":"bool"},{"name":"message","type":"string","internalType":"string"},{"name":"data","type":"bytes","internalType":"bytes"}]}],"stateMutability":"view"},{"type":"function","name":"verifyTransfer","inputs":[{"name":"tokenId","type":"uint256","internalType":"uint256"},{"name":"from","type":"address","internalType":"address"},{"name":"to","type":"address","internalType":"address"},{"name":"dataHashes","type":"bytes32[]","internalType":"bytes32[]"},{"name":"proof","type":"bytes","internalType":"bytes"}],"outputs":[{"name":"","type":"tuple","internalType":"struct IERC7857Verification.VerificationResult","components":[{"name":"success","type":"bool","internalType":"bool"},{"name":"message","type":"string","internalType":"string"},{"name":"data","type":"bytes","internalType":"bytes"}]}],"stateMutability":"view"},{"type":"event","name":"AIInteraction","inputs":[{"name":"tokenId","type":"uint256","indexed":true,"internalType":"uint256"},{"name":"user","type":"address","indexed":true,"internalType":"address"},{"name":"interactionType","type":"string","indexed":false,"internalType":"string"}],"anonymous":false},{"type":"event","name":"AIStateUpdated","inputs":[{"name":"tokenId","type":"uint256","indexed":true,"internalType":"uint256"},{"name":"interactionCount","type":"uint256","indexed":false,"internalType":"uint256"}],"anonymous":false},{"type":"event","name":"AddressBlacklisted","inputs":[{"name":"account","type":"address","indexed":true,"internalType":"address"},{"name":"blacklisted","type":"bool","indexed":false,"internalType":"bool"}],"anonymous":false},{"type":"event","name":"Approval","inputs":[{"name":"owner","type":"address","indexed":true,"internalType":"address"},{"name":"approved","type":"address","indexed":true,"internalType":"address"},{"name":"tokenId","type":"uint256","indexed":true,"internalType":"uint256"}],"anonymous":false},{"type":"event","name":"ApprovalForAll","inputs":[{"name":"owner","type":"address","indexed":true,"internalType":"address"},{"name":"operator","type":"address","indexed":true,"internalType":"address"},{"name":"approved","type":"bool","indexed":false,"internalType":"bool"}],"anonymous":false},{"type":"event","name":"AuthorizedUser","inputs":[{"name":"tokenId","type":"uint256","indexed":true,"internalType":"uint256"},{"name":"user","type":"address","indexed":true,"internalType":"address"}],"anonymous":false},{"type":"event","name":"BatchMetadataUpdate","inputs":[{"name":"_fromTokenId","type":"uint256","indexed":false,"internalType":"uint256"},{"name":"_toTokenId","type":"uint256","indexed":false,"internalType":"uint256"}],"anonymous":false},{"type":"event","name":"ContentHashVerified","inputs":[{"name":"tokenId","type":"uint256","indexed":true,"internalType":"uint256"},{"name":"contentHash","type":"bytes32","indexed":true,"internalType":"bytes32"},{"name":"verified","type":"bool","indexed":false,"internalType":"bool"}],"anonymous":false},{"type":"event","name":"EmergencyPauseToggled","inputs":[{"name":"paused","type":"bool","indexed":false,"internalType":"bool"}],"anonymous":false},{"type":"event","name":"EncryptedKnowledgeIndexed","inputs":[{"name":"tokenId","type":"uint256","indexed":true,"internalType":"uint256"},{"name":"indexHash","type":"bytes32","indexed":true,"internalType":"bytes32"},{"name":"totalChunks","type":"uint256","indexed":false,"internalType":"uint256"}],"anonymous":false},{"type":"event","name":"EncryptedModelStateUpdated","inputs":[{"name":"tokenId","type":"uint256","indexed":true,"internalType":"uint256"},{"name":"stateHash","type":"bytes32","indexed":true,"internalType":"bytes32"},{"name":"stateVersion","type":"uint256","indexed":false,"internalType":"uint256"}],"anonymous":false},{"type":"event","name":"EncryptionVersionUpdated","inputs":[{"name":"tokenId","type":"uint256","indexed":true,"internalType":"uint256"},{"name":"newVersion","type":"uint256","indexed":false,"internalType":"uint256"}],"anonymous":false},{"type":"event","name":"INFTMinted","inputs":[{"name":"tokenId","type":"uint256","indexed":true,"internalType":"uint256"},{"name":"owner","type":"address","indexed":true,"internalType":"address"},{"name":"knowledgeHash","type":"string","indexed":false,"internalType":"string"}],"anonymous":false},{"type":"event","name":"KnowledgeAdded","inputs":[{"name":"tokenId","type":"uint256","indexed":true,"internalType":"uint256"},{"name":"knowledgeHash","type":"string","indexed":false,"internalType":"string"}],"anonymous":false},{"type":"event","name":"MetadataUpdate","inputs":[{"name":"tokenId","type":"uint256","indexed":true,"internalType":"uint256"},{"name":"dataHashes","type":"bytes32[]","indexed":false,"internalType":"bytes32[]"}],"anonymous":false},{"type":"event","name":"MetadataUpdate","inputs":[{"name":"_tokenId","type":"uint256","indexed":false,"internalType":"uint256"}],"anonymous":false},{"type":"event","name":"OwnershipTransferred","inputs":[{"name":"previousOwner","type":"address","indexed":true,"internalType":"address"},{"name":"newOwner","type":"address","indexed":true,"internalType":"address"}],"anonymous":false},{"type":"event","name":"Paused","inputs":[{"name":"account","type":"address","indexed":false,"internalType":"address"}],"anonymous":false},{"type":"event","name":"RevokedUser","inputs":[{"name":"tokenId","type":"uint256","indexed":true,"internalType":"uint256"},{"name":"user","type":"address","indexed":true,"internalType":"address"}],"anonymous":false},{"type":"event","name":"RoleAdminChanged","inputs":[{"name":"role","type":"bytes32","indexed":true,"internalType":"bytes32"},{"name":"previousAdminRole","type":"bytes32","indexed":true,"internalType":"bytes32"},{"name":"newAdminRole","type":"bytes32","indexed":true,"internalType":"bytes32"}],"anonymous":false},{"type":"event","name":"RoleGranted","inputs":[{"name":"role","type":"bytes32","indexed":true,"internalType":"bytes32"},{"name":"account","type":"address","indexed":true,"internalType":"address"},{"name":"sender","type":"address","indexed":true,"internalType":"address"}],"anonymous":false},{"type":"event","name":"RoleRevoked","inputs":[{"name":"role","type":"bytes32","indexed":true,"internalType":"bytes32"},{"name":"account","type":"address","indexed":true,"internalType":"address"},{"name":"sender","type":"address","indexed":true,"internalType":"address"}],"anonymous":false},{"type":"event","name":"TokenFrozen","inputs":[{"name":"tokenId","type":"uint256","indexed":true,"internalType":"uint256"},{"name":"frozen","type":"bool","indexed":false,"internalType":"bool"}],"anonymous":false},{"type":"event","name":"TokenRoleGranted","inputs":[{"name":"tokenId","type":"uint256","indexed":true,"internalType":"uint256"},{"name":"role","type":"bytes32","indexed":true,"internalType":"bytes32"},{"name":"account","type":"address","indexed":true,"internalType":"address"}],"anonymous":false},{"type":"event","name":"TokenRoleRevoked","inputs":[{"name":"tokenId","type":"uint256","indexed":true,"internalType":"uint256"},{"name":"role","type":"bytes32","indexed":true,"internalType":"bytes32"},{"name":"account","type":"address","indexed":true,"internalType":"address"}],"anonymous":false},{"type":"event","name":"Transfer","inputs":[{"name":"from","type":"address","indexed":true,"internalType":"address"},{"name":"to","type":"address","indexed":true,"internalType":"address"},{"name":"tokenId","type":"uint256","indexed":true,"internalType":"uint256"}],"anonymous":false},{"type":"event","name":"TransferCooldownSet","inputs":[{"name":"tokenId","type":"uint256","indexed":true,"internalType":"uint256"},{"name":"cooldownPeriod","type":"uint256","indexed":false,"internalType":"uint256"}],"anonymous":false},{"type":"event","name":"Unpaused","inputs":[{"name":"account","type":"address","indexed":false,"internalType":"address"}],"anonymous":false},{"type":"event","name":"UserAccessKeyGranted","inputs":[{"name":"tokenId","type":"uint256","indexed":true,"internalType":"uint256"},{"name":"user","type":"address","indexed":true,"internalType":"address"},{"name":"keyHash","type":"bytes32","indexed":false,"internalType":"bytes32"}],"anonymous":false},{"type":"event","name":"UserAccessKeyRevoked","inputs":[{"name":"tokenId","type":"uint256","indexed":true,"internalType":"uint256"},{"name":"user","type":"address","indexed":true,"internalType":"address"}],"anonymous":false},{"type":"error","name":"AccessControlBadConfirmation","inputs":[]},{"type":"error","name":"AccessControlUnauthorizedAccount","inputs":[{"name":"account","type":"address","internalType":"address"},{"name":"neededRole","type":"bytes32","internalType":"bytes32"}]},{"type":"error","name":"ERC721IncorrectOwner","inputs":[{"name":"sender","type":"address","internalType":"address"},{"name":"tokenId","type":"uint256","internalType":"uint256"},{"name":"owner","type":"address","internalType":"address"}]},{"type":"error","name":"ERC721InsufficientApproval","inputs":[{"name":"operator","type":"address","internalType":"address"},{"name":"tokenId","type":"uint256","internalType":"uint256"}]},{"type":"error","name":"ERC721InvalidApprover","inputs":[{"name":"approver","type":"address","internalType":"address"}]},{"type":"error","name":"ERC721InvalidOperator","inputs":[{"name":"operator","type":"address","internalType":"address"}]},{"type":"error","name":"ERC721InvalidOwner","inputs":[{"name":"owner","type":"address","internalType":"address"}]},{"type":"error","name":"ERC721InvalidReceiver","inputs":[{"name":"receiver","type":"address","internalType":"address"}]},{"type":"error","name":"ERC721InvalidSender","inputs":[{"name":"sender","type":"address","internalType":"address"}]},{"type":"error","name":"ERC721NonexistentToken","inputs":[{"name":"tokenId","type":"uint256","internalType":"uint256"}]},{"type":"error","name":"EnforcedPause","inputs":[]},{"type":"error","name":"ExpectedPause","inputs":[]},{"type":"error","name":"OwnableInvalidOwner","inputs":[{"name":"owner","type":"address","internalType":"address"}]},{"type":"error","name":"OwnableUnauthorizedAccount","inputs":[{"name":"account","type":"address","internalType":"address"}]},{"type":"error","name":"ReentrancyGuardReentrantCall","inputs":[]}],"bytecode":{"object":"0x608034620003d1576001600160401b039060409080820183811182821017620003bd578252600e815260206d125b9d195b1b1a599e481253919560921b8183015282519383850185811082821117620003bd5784526005855264125253919560da1b828601528251818111620003bd575f928354916001958684811c94168015620003b2575b838510146200039e578190601f948581116200034b575b508390858311600114620002e8578792620002dc575b50505f19600383901b1c191690861b1784555b8651928311620002c85784548581811c91168015620002bd575b82821014620002a95782811162000261575b5080918311600114620001f9575082939495829392620001ed575b50505f19600383901b1c191690831b1782555b3315620001d65760078054336001600160a01b03198216811790925590916001600160a01b03909116907f8be0079c531659141344cd1fd0a4f28419497f9722a3daafe3b4186f6b6457e09080a3600955610e10601d5560ff19601e5416601e556200018b33620003d5565b50620001973362000454565b50620001a333620004f5565b50620001af3362000591565b50620001bb336200062d565b50620001c733620006c9565b50516170fe9081620007668239f35b602490835190631e4fbdf760e01b82526004820152fd5b015190505f806200010c565b90601f198316968585528285209285905b89821062000249575050838697989695961062000230575b505050811b0182556200011f565b01515f1960f88460031b161c191690555f808062000222565b8088859682949686015181550195019301906200020a565b8585528185208380860160051c8201928487106200029f575b0160051c019086905b82811062000293575050620000f1565b86815501869062000283565b925081926200027a565b634e487b7160e01b85526022600452602485fd5b90607f1690620000df565b634e487b7160e01b84526041600452602484fd5b015190505f80620000b2565b8780528488208994509190601f198416895b878282106200033457505084116200031b575b505050811b018455620000c5565b01515f1960f88460031b161c191690555f80806200030d565b8385015186558c97909501949384019301620002fa565b9091508680528387208580850160051c82019286861062000394575b918a91869594930160051c01915b828110620003855750506200009c565b8981558594508a910162000375565b9250819262000367565b634e487b7160e01b86526022600452602486fd5b93607f169362000085565b634e487b7160e01b5f52604160045260245ffd5b5f80fd5b6001600160a01b03165f8181527f5eff886ea0ce6ca488a3d6e336d6c0f75f46d19b42c06ce5ee98e42c96d256c7602052604081205490919060ff16620004505781805260086020526040822081835260205260408220600160ff1982541617905533915f80516020620078648339815191528180a4600190565b5090565b6001600160a01b03165f8181527f17d1276acf776df712513cd7e943076446ad62eef46fc257e0602ed40109c3c660205260408120549091907fa49807205ce4d355092ef5a8a18f56e8913cf4a201fbe287825b095693c217759060ff16620004f05780835260086020526040832082845260205260408320600160ff198254161790555f8051602062007864833981519152339380a4600190565b505090565b6001600160a01b03165f8181527f51a495916474fe1a0c0fcfb65a8a97682b84a054118858cdd1f5dfd7fc0919eb60205260408120549091907f9f2df0fed2c77648de5860a4cc508cd0818c85b8b8a1ab4ceeef8d981c8956a69060ff16620004f05780835260086020526040832082845260205260408320600160ff198254161790555f8051602062007864833981519152339380a4600190565b6001600160a01b03165f8181527f545c5dac7f3b92753b9d5b31cc0283f72e0a110a2aa21583578230aef445be3a60205260408120549091907f71f3d55856e4058ed06ee057d79ada615f65cdf5f9ee88181b914225088f834f9060ff16620004f05780835260086020526040832082845260205260408320600160ff198254161790555f8051602062007864833981519152339380a4600190565b6001600160a01b03165f8181527f1b10e958d35ebdb54fec011ccc6f61048f2dadd03d5ed57450f8c1f2e0af9be060205260408120549091907f625b774358699f4a47bba9565d63381cd2eee703dfa40285af14a25de800ac639060ff16620004f05780835260086020526040832082845260205260408320600160ff198254161790555f8051602062007864833981519152339380a4600190565b6001600160a01b03165f8181527f510e7abe91cb7ce564f1e3147512cc3aa55eacdf5ee01b34f80fc0fa2e8c6b1360205260408120549091907f0ce23c3e399818cfee81a7ab0880f714e53d7672b08df0fa62f2843416e1ea099060ff16620004f05780835260086020526040832082845260205260408320600160ff198254161790555f8051602062007864833981519152339380a460019056fe60806040526004361015610011575f80fd5b5f3560e01c8062b044bd14615738578063018e68d3146156a357806301ffc9a7146154ef57806306fdde031461544f578063081812fc14615412578063087dce94146153a3578063095ea7b3146152aa578063178c2f5f14612cf557806318160ddd1461528d5780631a9e69b1146150e55780631b9b507a14614f875780631fd7b88214614f6c5780632306a74414614e3c57806323b872dd14614e25578063248a9ca314614df8578063254a031e14614da4578063255446fe14614ce3578063283c5c9714614cc85780632ae5bbdf14614cab5780632f2ff15d14614c6e5780632fdff19b14614b4457806330f2f47214614a11578063351bda1a146149d757806336568abe146149785780633cee790c146147f55780633d93eec7146147565780633ed92d31146143685780633eddf96d1461431457806342842e0e146142e757806342966c6814613b5c57806343039db21461398757806348877068146137f05780634d4f6ea9146137c857806351858e27146137a657806351e904f21461363b57806356ff1cdf146135d25780635817ce7f146135405780635c975abb1461351e5780635ee7ffff1461335257806360878ebb14613237578063609c6d7f146131b25780636352211e14613183578063652d3cca1461316857806368b78624146131005780636ad7158f14612fda57806370a0823114612f6c578063715018a614612f1357806375b238fc14612ed957806375fc86a714612e8757806378e652b514612d91578063797669c914612d575780637c2f7d2e14612cf55780638c4cba8b14612bf65780638da5cb5b14612bd057806390683e8c14612b9357806391d1485414612b495780639246d058146119c957806395d89b41146119015780639efb614414611849578063a217fddf1461182f578063a22cb46514611771578063a329c714146116c3578063a70bdff21461142d578063a7da01fc14611396578063ae6d125d146112b9578063b3189c2a146111ae578063b53c24d714611120578063b7975972146110bf578063b88d4fde14611064578063ba11335014610fcd578063bc6d1ca914610f5e578063bde644fb14610efd578063c26fd5bd14610ee2578063c815b61d14610d55578063c87b56dd14610cff578063cc888bab14610cb0578063d35e058614610c1c578063d4181ebf14610b37578063d539139314610afd578063d547741f14610abe578063d71bb38c14610979578063d8d1a65714610842578063e3356a7a14610783578063e7705db614610749578063e985e9c5146106f6578063eba1958e1461062a578063ef952756146105dd578063f2fde38b14610540578063f4c4a6ad146104f6578063fc7244cd146104db5763ff9ddeb414610401575f80fd5b346104d75761040f36615a5c565b61044661041b83616f48565b6104316001600160a01b03918233911614615fcc565b835f52600260205260405f2054161515616017565b62278d0081116104935760208161047e7f5ba7b6136d6508af97a3b6ee54f35643ec14d2d0931c5cea5b006b25cfe9c9e19342615fbf565b845f52601c835260405f2055604051908152a2005b606460405162461bcd60e51b815260206004820152601160248201527f436f6f6c646f776e20746f6f206c6f6e670000000000000000000000000000006044820152fd5b5f80fd5b346104d7575f3660031901126104d757602060405160088152f35b346104d75760203660031901126104d757600435805f52600260205261052a6001600160a01b0360405f2054161515616017565b5f526014602052602060405f2054604051908152f35b346104d75760203660031901126104d7576105596159fb565b6105616168ce565b6001600160a01b038091169081156105ad57600754826001600160a01b0319821617600755167f8be0079c531659141344cd1fd0a4f28419497f9722a3daafe3b4186f6b6457e05f80a3005b60246040517f1e4fbdf70000000000000000000000000000000000000000000000000000000081525f6004820152fd5b346104d75760203660031901126104d757600435805f5260026020526106116001600160a01b0360405f2054161515616017565b5f5260156020526020600260405f200154604051908152f35b346104d75761063836615a72565b825f93929352602092600284526001600160a01b039061065f8260405f2054161515616017565b835f526018855260405f20905f5284528060405f20921691825f52845260ff60405f2054169283156106e0575b505081156106a0575b506040519015158152f35b90507fa49807205ce4d355092ef5a8a18f56e8913cf4a201fbe287825b095693c217755f526008825260405f20905f52815260ff60405f20541682610695565b8293506106ec90616f48565b161490838061068c565b346104d75760403660031901126104d75761070f6159fb565b610717615a11565b906001600160a01b038091165f52600560205260405f2091165f52602052602060ff60405f2054166040519015158152f35b346104d7575f3660031901126104d75760206040517f0ce23c3e399818cfee81a7ab0880f714e53d7672b08df0fa62f2843416e1ea098152f35b346104d75761079136615a5c565b905f52600d60205260405f2080548210156104d75761080c916107b391615c7e565b5061083e6107c082615ad4565b916001810154906107d360028201615ad4565b9060038101549261081f60ff600484015416916107f7600660058601549501615ad4565b94604051998a9960e08b5260e08b0190615962565b9160208a015288820360408a0152615962565b9360608701521515608086015260a085015283820360c0850152615962565b0390f35b346104d75760203660031901126104d757600435801515908181036104d75761086961675c565b7fb5838f871ddee4623a406029b1a0b6013e0ec30f2dc114307f21459a800a8296602060ff199384601e541660ff821617601e55604051908152a11561091357600a549060ff82166108e9576001911617600a557f62e78cea01bee320cd4e420270b5ea74000d11b0c9f74754ebdbfc544b05a2586020604051338152a1005b60046040517fd93c0665000000000000000000000000000000000000000000000000000000008152fd5b600a5460ff81161561094f5716600a557f5db9ee0a495bf2e6ff9c91a7834c1ba4fdd244a5e8aa4e537bd38aeae4b073aa6020604051338152a1005b60046040517f8dfc202b000000000000000000000000000000000000000000000000000000008152fd5b346104d75761098736615a72565b9161099181616f48565b926109a86001600160a01b03948533911614615fcc565b815f52602093600285526109c38160405f2054161515616017565b811693845f52601a81526109de60ff60405f20541615615c97565b6109e9851515616062565b825f526018815260405f20845f52815260405f20855f52815260ff60405f205416610a7a5790610a5491835f526018815260405f20855f52815260405f20865f52815260405f20600160ff19825416179055835f526019815260405f2090855f525260405f206160ad565b7fcb22f582ca617b10d70abe7e6ec297dffb877f0415a6ac8167159c81ca0840045f80a4005b6064906040519062461bcd60e51b82526004820152601460248201527f526f6c6520616c7265616479206772616e7465640000000000000000000000006044820152fd5b346104d75760403660031901126104d757610afb600435610add615a11565b90805f526008602052610af6600160405f2001546167b7565b616858565b005b346104d7575f3660031901126104d75760206040517f9f2df0fed2c77648de5860a4cc508cd0818c85b8b8a1ab4ceeef8d981c8956a68152f35b346104d75760203660031901126104d757600435805f526002602052610b6b6001600160a01b0360405f2054161515616017565b5f52601060205260405f20604051610b828161579e565b604051610b9a81610b9381866161e2565b0382615847565b8152604051610bb081610b9381600187016161e2565b602082015260028201546040820152610bcb60038301615ad4565b606082015261083e60c060048401549283608082015260ff60066005870154968760a08501520154161515918291015260405193849384919260409194936060840195845260208401521515910152565b346104d7576020806003193601126104d757600435805f52600282526001600160a01b0390610c528260405f2054161515616017565b5f526017825260405f209160405180928285549283815201945f52825f20925f915b838310610c975761083e86610c8b818a0382615847565b60405191829182615c3b565b8454811687529581019560019485019490920191610c74565b346104d75760203660031901126104d757600435805f526002602052610ce46001600160a01b0360405f2054161515616017565b5f52601b602052602060ff60405f2054166040519015158152f35b346104d75760203660031901126104d757600435610d1c81616f48565b505f52600660205261083e610d3360405f20615ad4565b5f604051610d408161580f565b52604051918291602083526020830190615962565b346104d7577faaf8dbe2b88ba72af81e9719231f327359ebabb74fdfb0b0416c2076103df713610d84366159cb565b610d8f829392616f48565b6001600160a01b039190821633148015610ec2575b8015610e8b575b610db490616101565b835f52610dce6020926002845260405f2054161515616017565b835f52601b8252610de660ff60405f2054161561614c565b610df560ff601e541615615ce2565b835f52600c8252610e0f60ff600460405f20015416616197565b835f52600c8252600260405f2001610e278154615dc3565b9055835f52600c825242600360405f200155837f8b1c2d805c37ebaa3454275243e164eb366ea9fbe1b9a771a82eb7826a66358960405184815280610e70339587830190615962565b0390a3825f52600c8152600260405f200154604051908152a2005b50335f9081527f17d1276acf776df712513cd7e943076446ad62eef46fc257e0602ed40109c3c6602052604090205460ff16610dab565b50835f52601660205260405f20335f5260205260ff60405f205416610da4565b346104d7575f3660031901126104d757602060405160018152f35b346104d75760203660031901126104d757600435805f526002602052610f316001600160a01b0360405f2054161515616017565b5f52601560205261083e610f4a600160405f2001615ad4565b604051918291602083526020830190615962565b346104d75760203660031901126104d757600435610f7a61675c565b62093a808111610f8957601d55005b606460405162461bcd60e51b815260206004820152601960248201527f44656661756c7420636f6f6c646f776e20746f6f206c6f6e67000000000000006044820152fd5b346104d757611050610fde366159cb565b611017610fec839493616f48565b6110026001600160a01b03918233911614615fcc565b845f52600260205260405f2054161515616017565b825f52601b60205261103060ff60405f2054161561614c565b61103f60ff601e541615615ce2565b825f52600c60205260405f20615e08565b5f52600c60205242600360405f2001555f80f35b346104d75760803660031901126104d75761107d6159fb565b611085615a11565b906044356064359267ffffffffffffffff84116104d7576110ad610afb9436906004016158fb565b926110b9838383616912565b33616f81565b346104d75760203660031901126104d757600435805f5260026020526110f36001600160a01b0360405f2054161515616017565b5f52600c60205261083e61110c600160405f200161668b565b604051918291602083526020830190615be0565b346104d75761112e36615a5c565b90805f52602091600283526001600160a01b03916111538360405f2054161515616017565b5f526019835260405f20905f52825260405f209160405180928285549283815201945f52825f20925f915b8383106111955761083e86610c8b818a0382615847565b845481168752958101956001948501949092019161117e565b346104d7576020806003193601126104d7576080906004355f60606040516111d5816157d7565b8181528185820152826040820152015261121b6111f182616f48565b6112076001600160a01b03918233911614615fcc565b825f526002845260405f2054161515616017565b5f526015815260405f2060405191611232836157d7565b60405161124381610b9381866161e2565b83526112a661125460018401615ad4565b82850190815261129360ff60036002870154966040890197885201541693606087019415158552604051978897828952519188015260a0870190615bad565b9051858203601f19016040870152615962565b9151606084015251151560808301520390f35b346104d75760403660031901126104d7576112d26159fb565b6112da615b75565b6112e261675c565b6001600160a01b03809216916112f9831515616062565b6007541682146113525760207f97b7af35c8c05eca90f543eb78b16fdf2664d3e6c9a907286f310647d9813b7191835f52601a82526113478160405f209060ff801983541691151516179055565b6040519015158152a2005b606460405162461bcd60e51b815260206004820152601660248201527f43616e6e6f7420626c61636b6c697374206f776e6572000000000000000000006044820152fd5b346104d75760203660031901126104d7576004356113e16113b682616f48565b6113cc6001600160a01b03918233911614615fcc565b825f52600260205260405f2054161515616017565b805f52601b6020526113fa60ff60405f2054161561614c565b61140960ff601e541615615ce2565b5f52600c60205260405f2060048101600160ff198254161790556003429101555f80f35b346104d75760803660031901126104d75760243560043560443560643567ffffffffffffffff81116104d7576114679036906004016158fb565b5061147182616f48565b6001600160a01b0391908216331480156116a3575b801561166c575b61149690616101565b825f526114b06020926002845260405f2054161515616017565b825f52601b82526114c860ff60405f2054161561614c565b6114d760ff601e541615615ce2565b83156116285780156115e457907fddb170ccfcfdf1332b02d993e3b68285ff36e9c60b7de220a2bc6748c2325fd991835f52600c825261152060ff600460405f20015416616197565b835f5260108252837f22e16898f2ba961fe1ddfedd9f5c0d3bea6113efd122aa6dadfa53e59499ed5a8360405f20936115598986615f94565b6115668160018701615f94565b600260048601956115778754615dc3565b87554260058201550190815490604051908482019283528b60408301526060820152426080820152608081526115ac816157f3565b5190208155835f526012825260405f20895f52825260405f20600160ff19825416179055549354604051908152a360405160018152a3005b6064826040519062461bcd60e51b82526004820152601560248201527f496e76616c69642073656d616e746963206861736800000000000000000000006044820152fd5b6064826040519062461bcd60e51b82526004820152601460248201527f496e76616c696420636f6e74656e7420686173680000000000000000000000006044820152fd5b50335f9081527f17d1276acf776df712513cd7e943076446ad62eef46fc257e0602ed40109c3c6602052604090205460ff1661148d565b50825f52601660205260405f20335f5260205260ff60405f205416611486565b346104d7576020806003193601126104d7576001600160a01b036116e56159fb565b165f52600e815260405f20604051908183825491828152019081925f52845f20905f5b8682821061175d57868661171e82880383615847565b60405192839281840190828552518091526040840192915f5b82811061174657505050500390f35b835185528695509381019392810192600101611737565b835485529093019260019283019201611708565b346104d75760403660031901126104d75761178a6159fb565b6001600160a01b0361179a615b75565b91169081156117fe57335f52600560205260405f20825f526020526117ce8160405f209060ff801983541691151516179055565b60405190151581527f17307eab39ab6107e8899845ad3d59bd9653f200f220920489ca2b5937696c3160203392a3005b602482604051907f5b08ba180000000000000000000000000000000000000000000000000000000082526004820152fd5b346104d7575f3660031901126104d75760206040515f8152f35b346104d75760a03660031901126104d757600435611865615a11565b604435906001600160a01b039081831683036104d75767ffffffffffffffff926064358481116104d75761189d903690600401615881565b916084359485116104d75761083e956118f06118c06118f59736906004016158fb565b956060604080516118d081615782565b5f81528260208201520152825f52600260205260405f2054161515616017565b616412565b60405191829182615987565b346104d7575f3660031901126104d7576040515f600180549061192382615a9c565b808552918181169081156119a2575060011461194a575b61083e84610f4a81860382615847565b5f81815292507fb10e2d527612073b26eecdfd717e6a320cf44b4afac2b0732d9fcbe2b7fa0cf65b82841061198a575050508101602001610f4a8261193a565b80546020858701810191909152909301928101611972565b60ff191660208087019190915292151560051b85019092019250610f4a915083905061193a565b346104d75760803660031901126104d7576119e26159fb565b60243567ffffffffffffffff81116104d757611a029036906004016158fb565b60443567ffffffffffffffff81116104d757611a229036906004016158fb565b9060643567ffffffffffffffff81116104d757611a439036906004016158fb565b335f9081527f51a495916474fe1a0c0fcfb65a8a97682b84a054118858cdd1f5dfd7fc0919eb602052604090205490919060ff1615612b0c576001600160a01b0384165f52601a602052611a9e60ff60405f20541615615c97565b60ff601e54161592611aaf84615ce2565b611abb81511515615d2d565b611ae760ff6040516020818551611ad58183858a01615941565b8101600f815203019020541615615d78565b600b5492611af484615dc3565b600b55604051611b038161580f565b5f81526001600160a01b03871615612af557845f5260026020526001600160a01b0360405f20541680151596878098612aed575b61299c575b5060026020526001600160a01b0360405f2054169687612965575b6001600160a01b0389165f52600360205260405f2060018154019055865f52600260205260405f206001600160a01b038a166001600160a01b0319825416179055866001600160a01b038a16897fddf252ad1be2c89b69c2b068fc378daa952ba7f163c4a11628f55a4df523b3ef5f80a48061295d575b612689575b50909192939461265957853b61251d575b50835f526006602052611bfa8360405f20615e08565b7ff8e1a15aba9398e019f0b49df1a4fde98ee17ae345cb5f6b5e2c27f5033e8ce76020604051868152a160405190611c318261582b565b600182525f5b6020811061250c575082611c4a83615dd1565b52611c5482615dd1565b5060405160208101907f696e697469616c5f737461746500000000000000000000000000000000000000825286602d820152602d8152611c9381615782565b51902060405191611ca3836157ba565b8252602082019283525f6040830152426060830152600160808301526001600160a01b03871660a083015260c0820152604051611cdf8161580f565b5f815260e0820152845f52600c60205260405f2091611cff825184615e08565b518051906801000000000000000082116124825760018401548260018601558083106124db575b50602001600184015f5260205f205f915b8383106124be575050505090600660e0836040611dd6950151600285015560608101516003850155611dc360048501611d8260808401511515829060ff801983541691151516179055565b60a0830151815474ffffffffffffffffffffffffffffffffffffffff00191660089190911b74ffffffffffffffffffffffffffffffffffffffff0016179055565b60c0810151600585015501519101615e08565b60405191611de38361582b565b60018352602036818501376040516020810190611e186020828651611e0b8187858b01615941565b8101038084520182615847565b519020611e2484615dd1565b5260405190611e32826157d7565b838252602082015242604082015260016060820152835f52601560205260405f2090805180519067ffffffffffffffff821161248257602090611e758386615f4d565b01835f5260205f205f5b8381106124aa5750505050906003606083611ea46020611ec596015160018601615e08565b604081015160028501550151151591019060ff801983541691151516179055565b60405193611ed28561582b565b6001855260203681870137604051611ee98161582b565b60018152602036818301376040516020810190611f486027828751611f12818760208c01615941565b81017f636f6e74656e74000000000000000000000000000000000000000000000000006020820152036007810184520182615847565b519020611f5487615dd1565b526040516020810190611fa96028828751611f73818760208c01615941565b81017f73656d616e7469630000000000000000000000000000000000000000000000006020820152036008810184520182615847565b519020611fb582615dd1565b5260405160208101907f696e6465785f7374727563747572650000000000000000000000000000000000825286602f820152602f8152611ff481615782565b51902090604051966120058861579e565b87526020870152604086015260405161201d8161580f565b5f81526060860152600160808601524260a0860152600160c0860152835f52601060205260405f20855180519067ffffffffffffffff8211612482576020906120668385615f4d565b01825f5260205f205f5b8381106124965750505050602086015195865167ffffffffffffffff811161248257602060018401986120a3838b615f4d565b01975f5260205f20975f5b82811061246e5750602088807f7c11262c02c9b4cb7d2da32ecb97a6ceb55da913d762dcf5c95dabbe032e3cc961239a8b8b847fa0aaa011c7e3f382a52d0fd58bc5cc80ce5c38969a1c2c1a628872a3f6b2b6216001600160a01b038e61215b8f8f60c081604060069301516002850155612130606082015160038601615e08565b6080810151600485015560a081015160058501550151151591019060ff801983541691151516179055565b6123096040518c8101907f776569676874730000000000000000000000000000000000000000000000000082528660278201526027815261219b81615782565b5190206007866040518f8101907f636f6e66696700000000000000000000000000000000000000000000000000008252826026820152602681526121de81615782565b51902060405160208101907f6d656d6f7279000000000000000000000000000000000000000000000000000082528360268201526026815261221f81615782565b5190206122e760405160208101907f636f6e746578740000000000000000000000000000000000000000000000000082528560278201526027815261226381615782565b51902060405196612273886157ba565b8752602087019384526040870192835260608701908152604051906122978261580f565b5f82526080880191825260a08801936001855260c089019542875260e08a0197600189525f5260206011905260405f2099518a555160018a01555160028901555160038801555160048701615e08565b51600585015551600684015551151591019060ff801983541691151516179055565b835f5260148b52600160405f20556040518b81875161232b8183858c01615941565b8101600f815203019020600160ff198254161790558181165f52600e8b526123568460405f20615f94565b612362601d5442615fbf565b845f52601c8c5260405f20556123856040519283928d845216958c830190615962565b0390a360405191829187835287830190615bad565b0390a2807f5ba7b6136d6508af97a3b6ee54f35643ec14d2d0931c5cea5b006b25cfe9c9e183601d54604051908152a2805f5260108252600260405f200154817f22e16898f2ba961fe1ddfedd9f5c0d3bea6113efd122aa6dadfa53e59499ed5a8460405160018152a3805f526011825260405f2054817fd016e5a8a016079b87d6c5a948ecad500b92d64343a013e058f82040116b39ee8460405160018152a3807f13379e7d45ea3c0256b456b6f552b86f1e9d032b21b22bf0b76eebffc19cbe7f8360405160018152a2604051908152f35b60019060208351930192818c0155016120ae565b634e487b7160e01b5f52604160045260245ffd5b600190602084519401938184015501612070565b600190602084519401938184015501611e7f565b60016020826124cf83945186615e08565b01920192019190611d37565b600185015f5260205f20908382015b81830181106124fa575050611d26565b80612506600192615f05565b016124ea565b806060602080938601015201611c37565b60206125579160405180938192630a85bd0160e11b83523360048401525f6024840152896044840152608060648401526084830190615962565b03815f6001600160a01b038b165af15f9181612614575b506125d557853d156125cd573d90612585826158df565b916125936040519384615847565b82523d5f602084013e5b815191826125c6576024826001600160a01b0360405191633250574960e11b8352166004820152fd5b6020915001fd5b60609061259d565b6001600160e01b0319630a85bd0160e11b9116036125f35785611be4565b6024856001600160a01b0360405191633250574960e11b8352166004820152fd5b9091506020813d602011612651575b8161263060209383615847565b810103126104d757516001600160e01b0319811681036104d757908761256e565b3d9150612623565b60246040517f73c6ac6e0000000000000000000000000000000000000000000000000000000081525f6004820152fd5b600c60205260405f20600401805474ffffffffffffffffffffffffffffffffffffffff00191660088a901b74ffffffffffffffffffffffffffffffffffffffff00161790555f52600e60205260405f20955f5b87548082101561294f57876126f1838b615b84565b90549060031b1c1461270c575061270790615dc3565b6126dc565b5f989293949596979819810190811161293b5761273d61272f6127539285615b84565b90549060031b1c9284615b84565b819391549060031b91821b915f19901b19161790565b905580548015612927575f19019061276b8282615b84565b8154905f199060031b1b19169055555b6001600160a01b0387165f52600e6020526127998660405f20615f94565b6040516127a5816157f3565b7f9f2df0fed2c77648de5860a4cc508cd0818c85b8b8a1ab4ceeef8d981c8956a681527f71f3d55856e4058ed06ee057d79ada615f65cdf5f9ee88181b914225088f834f60208201527f625b774358699f4a47bba9565d63381cd2eee703dfa40285af14a25de800ac6360408201527f0ce23c3e399818cfee81a7ab0880f714e53d7672b08df0fa62f2843416e1ea0960608201525f60808201525f905b60058210612858575095949392919095611bd3565b9490969792959193885f52601960205260405f206128768988616eb5565b515f5260205260405f20965f5b88548110156128e5576128e0908b5f52601860205260405f206128a68c8b616eb5565b515f5260205260405f206001600160a01b036128c2838d615b84565b90549060031b1c165f5260205260405f2060ff198154169055615dc3565b612883565b509398976129219195939750959195885f52601960205260405f2061290a8285616eb5565b515f5260205261291c60405f206166df565b615dc3565b90612843565b634e487b7160e01b5f52603160045260245ffd5b634e487b7160e01b5f52601160045260245ffd5b50509091929394955061277b565b506001611bce565b612984875f52600460205260405f206001600160a01b03198154169055565b875f52600360205260405f205f198154019055611b57565b815f52601a60205260ff60405f205416612aa9576001600160a01b0389165f52601a60205260ff60405f205416612a65576129ef90875f52601b6020526129ea60ff60405f2054161561614c565b615ce2565b855f52601c60205260405f20544210612a2157612a0e601d5442615fbf565b865f52601c60205260405f205588611b3c565b606460405162461bcd60e51b815260206004820152601860248201527f5472616e7366657220636f6f6c646f776e2061637469766500000000000000006044820152fd5b606460405162461bcd60e51b815260206004820152601960248201527f546f206164647265737320697320626c61636b6c6973746564000000000000006044820152fd5b606460405162461bcd60e51b815260206004820152601b60248201527f46726f6d206164647265737320697320626c61636b6c697374656400000000006044820152fd5b506001611b37565b6024604051633250574960e11b81525f6004820152fd5b604460405163e2517d3f60e01b81523360048201527f9f2df0fed2c77648de5860a4cc508cd0818c85b8b8a1ab4ceeef8d981c8956a66024820152fd5b346104d75760403660031901126104d757612b62615a11565b6004355f5260086020526001600160a01b0360405f2091165f52602052602060ff60405f2054166040519015158152f35b346104d75760203660031901126104d7576001600160a01b03612bb46159fb565b165f52601a602052602060ff60405f2054166040519015158152f35b346104d7575f3660031901126104d75760206001600160a01b0360075416604051908152f35b346104d757612c0436615a5c565b612c0d82616f48565b90612c246001600160a01b03928333911614615fcc565b825f52612c3e6020926002845260405f2054161515616017565b825f52601b8252612c5660ff60405f2054161561614c565b612c6560ff601e541615615ce2565b825f526014825260405f2054811115612cb157907f13379e7d45ea3c0256b456b6f552b86f1e9d032b21b22bf0b76eebffc19cbe7f91835f52601482528060405f2055604051908152a2005b6064826040519062461bcd60e51b82526004820152601660248201527f56657273696f6e206d75737420626520686967686572000000000000000000006044820152fd5b346104d75760203660031901126104d75760043567ffffffffffffffff81116104d75760ff612d416020612d2e819436906004016158fb565b8160405193828580945193849201615941565b8101600f81520301902054166040519015158152f35b346104d7575f3660031901126104d75760206040517f71f3d55856e4058ed06ee057d79ada615f65cdf5f9ee88181b914225088f834f8152f35b346104d75760403660031901126104d757600435612dad615b75565b335f9081527f545c5dac7f3b92753b9d5b31cc0283f72e0a110a2aa21583578230aef445be3a60205260409020547f71f3d55856e4058ed06ee057d79ada615f65cdf5f9ee88181b914225088f834f9060ff1615612e69575060207fbf025f2b09b91dc81d2b137bed7b878fb0bd75a3bfe4708d69989fda3c63485a91835f5260028252612e496001600160a01b0360405f2054161515616017565b835f52601b82526113478160405f209060ff801983541691151516179055565b6044906040519063e2517d3f60e01b82523360048301526024820152fd5b346104d75760203660031901126104d757600435805f526002602052612ebb6001600160a01b0360405f2054161515616017565b5f526015602052602060ff600360405f200154166040519015158152f35b346104d7575f3660031901126104d75760206040517fa49807205ce4d355092ef5a8a18f56e8913cf4a201fbe287825b095693c217758152f35b346104d7575f3660031901126104d757612f2b6168ce565b5f6001600160a01b036007546001600160a01b03198116600755167f8be0079c531659141344cd1fd0a4f28419497f9722a3daafe3b4186f6b6457e08280a3005b346104d75760203660031901126104d7576001600160a01b03612f8d6159fb565b168015612faa575f526003602052602060405f2054604051908152f35b60246040517f89c62b640000000000000000000000000000000000000000000000000000000081525f6004820152fd5b346104d75760403660031901126104d75760043567ffffffffffffffff6024358181116104d75761300f903690600401615881565b9061301983616f48565b906130306001600160a01b03928333911614615fcc565b835f5261304a6020926002845260405f2054161515616017565b835f52601b825261306260ff60405f2054161561614c565b61307160ff601e541615615ce2565b835f526015825260405f2083519182116124825761308f8282615f4d565b828401905f52825f205f5b8381106130ee57867f7c11262c02c9b4cb7d2da32ecb97a6ceb55da913d762dcf5c95dabbe032e3cc98787835f526015815242600260405f2001556130e9604051928284938452830190615bad565b0390a2005b8251828201559184019160010161309a565b346104d75760203660031901126104d757600435805f5260026020526131346001600160a01b0360405f2054161515616017565b5f52601560205261083e610b9361315460405f20604051928380926161e2565b604051918291602083526020830190615bad565b346104d7575f3660031901126104d757602060405160108152f35b346104d75760203660031901126104d75760206131a1600435616f48565b6001600160a01b0360405191168152f35b346104d75760403660031901126104d75760206004356131d0615a11565b815f52600283526001600160a01b036131f08160405f2054161515616017565b825f52601684528060405f20921691825f52845260ff60405f205416928315613221575b5050506040519015158152f35b61322d91929350616f48565b1614828080613214565b346104d75760403660031901126104d757600435613253615a11565b9061325d81616f48565b6132736001600160a01b03918233911614615fcc565b815f526020906002825261328e8160405f2054161515616017565b825f52601b82526132a660ff60405f2054161561614c565b6132b560ff601e541615615ce2565b825f526013825260405f20931692835f52815260405f20541561330e57815f526013815260405f2090835f52525f60408120557f2d5aa4e5b167448bfddf1441c1b322d74acf984411e2821ce9bdd194694f4f525f80a3005b6064906040519062461bcd60e51b82526004820152601660248201527f5573657220686173206e6f20616363657373206b6579000000000000000000006044820152fd5b346104d75760403660031901126104d75760043561336e615a11565b9061337881616f48565b9061338f6001600160a01b03928333911614615fcc565b805f526020600281526133a98360405f2054161515616017565b815f52601b81526133c160ff60405f2054161561614c565b6133d060ff601e541615615ce2565b815f52601681528260405f20941693845f52815260ff60405f205416156134da57601790825f526016815260405f20855f52815260405f2060ff198154169055825f525260405f20915f5b8354808210156134d0578290866134328488615b84565b939054600394851b1c161461345157505061344c90615dc3565b61341b565b939492939091905f19810190811161293b576134aa946134a5936134786134859387615b84565b9054911b1c169184615b84565b90919082549060031b916001600160a01b03809116831b921b1916179055565b6160d5565b7f935df0251133d272e3ac5f8fd9287fd1ac4ba878583def9e5ca77bdb2600271c5f80a3005b50505090506134aa565b6064906040519062461bcd60e51b82526004820152601360248201527f55736572206e6f7420617574686f72697a6564000000000000000000000000006044820152fd5b346104d7575f3660031901126104d757602060ff600a54166040519015158152f35b346104d7576020806003193601126104d75760809060043590815f52600281526001600160a01b039161357a8360405f2054161515616017565b61358381616f48565b90805f52601b835260ff60405f20541693601c84526135a660405f205492616700565b92165f52601a835260ff60405f2054169260405194151585528401521515604083015215156060820152f35b346104d75760203660031901126104d7576004356135f26113b682616f48565b805f52601b60205261360b60ff60405f2054161561614c565b61361a60ff601e541615615ce2565b5f52600c60205260405f206004810160ff1981541690556003429101555f80f35b346104d7576020806003193601126104d75761376161083e60043560e0604051613664816157ba565b606091818380935282888201525f60408201525f838201525f60808201525f60a08201525f60c08201520152815f52600285526001600160a01b03916136b18360405f2054161515616017565b5f52600c855260405f2094604051916136c9836157ba565b6136d287615ad4565b83526136e06001880161668b565b96828401978852600281015494604085019586526003820154838601908152600483015490608087019060ff8316151582528360a089019360081c168352613736600660058701549660c08b0197885201615ad4565b9560e089019687526137766040519d8e9d8e9b8b8d52518c6101009c8d9101526101208d0190615962565b9051601f199b60408d82850301910152615be0565b9951908c01525160808b015251151560a08a0152511660c08801525160e087015251918584030190850152615962565b346104d7575f3660031901126104d757602060ff601e54166040519015158152f35b346104d75760203660031901126104d75760206137e6600435616700565b6040519015158152f35b346104d75760a03660031901126104d75760243560043560843560643560443561385561381c85616f48565b6001600160a01b0390811633148015613967575b8015613930575b61384090616101565b855f52600260205260405f2054161515616017565b835f52601b60205261386e60ff60405f2054161561614c565b61387d60ff601e541615615ce2565b835f52600c60205261389860ff600460405f20015416616197565b835f52601160205260405f209480613928575b508061391d575b5080613912575b5080613907575b507fd016e5a8a016079b87d6c5a948ecad500b92d64343a013e058f82040116b39ee602060058401936138f38554615dc3565b8095554260068201555493604051908152a3005b6003830155826138c0565b6002840155836138b9565b6001850155846138b2565b8555856138ab565b50335f9081527f17d1276acf776df712513cd7e943076446ad62eef46fc257e0602ed40109c3c6602052604090205460ff16613837565b50855f52601660205260405f20335f5260205260ff60405f205416613830565b346104d7576020806003193601126104d757604051906004356139a98361579e565b5f60c0606094858152858582015282604082015285808201528260808201528260a08201520152613a006139dc82616f48565b6001600160a01b0390811633148015613b3e575b8015613aff575b61120790616101565b5f526010815260405f2060405192613a178461579e565b604051613a2881610b9381866161e2565b845260405191613a4683613a3f81600185016161e2565b0384615847565b838501928352613ae6600282015460408701908152613a6760038401615ad4565b948488019586526004840154956080890196875260ff600660058701549660a08c019788520154169560c08a019615158752613ad0613aba8a60e06040519d8e9d8e5251918d01526101008c0190615bad565b935193601f1994858c83030160408d0152615bad565b9351908901525190878303016080880152615962565b925160a08501525160c084015251151560e08301520390f35b507fa49807205ce4d355092ef5a8a18f56e8913cf4a201fbe287825b095693c217755f908152600885526040808220338352865290205460ff166139f7565b50825f526016845260405f20335f52845260ff60405f2054166139f0565b346104d7576020806003193601126104d75760043590815f526002918282526001600160a01b03613b95828260405f2054163390616ec6565b156142a357815f52600c8352600191613bb28360405f200161668b565b91815f528585528060405f2054169586151580809161429c575b61414e575b8697828798528360405f20541691855f8415948515614118575b828252868d52604082206001600160a01b031981541690557fddf252ad1be2c89b69c2b068fc378daa952ba7f163c4a11628f55a4df523b3ef8280a480614111575b613ea4575b50909192939450613e8c57825f52600c865260405f2090613c5282615f05565b8582018054905f815581613e63575b50505f818301556003915f838201555f600482015560055f81830155613c8a6006809301615f05565b855f52600d895260405f20918254915f845582613e01575b50505050835f526015875260405f209081545f835580613ddc575b5091815f889594613cd087839601615f05565b8201550155825f526017865260405f209060405191828882549182815201915f52885f20905f5b8a828210613dc7575050505082613d0f910383615847565b5f835b613d82575b505050505f5260178352613d2d60405f206166df565b5f825b613d3657005b8151811015610afb5780613d6585613d51613d7c9486615dde565b518160405193828580945193849201615941565b8101600f81520301902060ff198154169055615dc3565b82613d30565b8251811015613dc257613dbc90855f526016895260405f2083613da58387615dde565b51165f52895260405f2060ff198154169055615dc3565b83613d12565b613d17565b8354861685528a979401939283019201613cf7565b825f5287895f20918201915b828110613df6575050613cbd565b5f8155018890613de8565b600793838502938585040361293b575f528a5f20928301925b838110613e275750613ca2565b80613e328692615f05565b5f8c820155613e42878201615f05565b5f888201555f60048201555f83820155613e5d848201615f05565b01613e1a565b5f5286885f20918201915b828110613e7b5750613c61565b613e8481615f05565b018790613e6e565b60248360405190637e27328960e01b82526004820152fd5b600c8952600460405f200174ffffffffffffffffffffffffffffffffffffffff001981541690555f52600e885260405f20865f905b614073575b50509091929394505f8052600e8752613efa8460405f20615f94565b604051613f06816157f3565b7f9f2df0fed2c77648de5860a4cc508cd0818c85b8b8a1ab4ceeef8d981c8956a681527f71f3d55856e4058ed06ee057d79ada615f65cdf5f9ee88181b914225088f834f888201527f625b774358699f4a47bba9565d63381cd2eee703dfa40285af14a25de800ac6360408201527f0ce23c3e399818cfee81a7ab0880f714e53d7672b08df0fa62f2843416e1ea0960608201525f60808201525f5b60058110613fb7578796959493929150613c32565b855f526019808a5260405f20613fcd8385616eb5565b515f528a5260405f2089805f905b614011575b5050509061400c91875f528a5260405f20613ffb8285616eb5565b515f528a5261291c60405f206166df565b613fa2565b8c835482101561406d57906018614067928c5f52528d60405f2090614036888a616eb5565b515f52528d60405f20908b61404b8488615b84565b90549060031b1c165f525260405f2060ff198154169055615dc3565b81613fdb565b50613fe0565b81548082101561410b5786906140898385615b84565b929054600393841b1c146140a85750506140a290615dc3565b87613ed9565b9190939495969798505f199182810190811161293b5761273d6140ce6140db9286615b84565b905490871b1c9285615b84565b905581548015612927578101926140f28484615b84565b81939154921b1b19169055559085949392918880613ede565b50613ede565b505f613c2d565b614137835f52600460205260405f206001600160a01b03198154169055565b80825260038d526040822082198154019055613beb565b875f52601a875260ff60405f205416614258575f8052601a875260ff60405f20541661421457835f52601b875261418c60ff60405f2054161561614c565b61419b60ff601e541615615ce2565b835f52601c875260405f205442106141d0578596976141bc601d5442615fbf565b855f52601c8a5260405f2055979650613bd1565b6064876040519062461bcd60e51b82526004820152601860248201527f5472616e7366657220636f6f6c646f776e2061637469766500000000000000006044820152fd5b6064876040519062461bcd60e51b82526004820152601960248201527f546f206164647265737320697320626c61636b6c6973746564000000000000006044820152fd5b6064876040519062461bcd60e51b82526004820152601b60248201527f46726f6d206164647265737320697320626c61636b6c697374656400000000006044820152fd5b505f613bcc565b6064836040519062461bcd60e51b82526004820152601660248201527f4e6f7420617574686f72697a656420746f206275726e000000000000000000006044820152fd5b346104d757610afb6142f836615a27565b90604051926143068461580f565b5f84526110b9838383616912565b346104d75760403660031901126104d75761432d6159fb565b6001600160a01b0360243591165f52600e60205260405f2080548210156104d75760209161435a91615b84565b90546040519160031b1c8152f35b346104d7576003196060368201126104d75767ffffffffffffffff906024358281116104d75761439c9036906004016158fb565b91604435918183116104d75760e09083360301126104d757604051916143c18361579e565b80600401358281116104d7576143dd90600436918401016158fb565b83526024810135602084015260448101358281116104d75761440590600436918401016158fb565b604084015260648101356060840152608481013580151581036104d757608084015260a481013560a084015260c48101359182116104d757600461444c92369201016158fb565b9060c0810191825261449d614462600435616f48565b6001600160a01b0390811633148015614734575b80156146fd575b61448690616101565b6004355f52600260205260405f2054161515616017565b6004355f52601b6020526144b860ff60405f2054161561614c565b6144c760ff601e541615615ce2565b6144d383511515615d2d565b6144ed60ff6040516020818751611ad58183858c01615941565b6004355f52600c60205261450a60ff600460405f20015416616197565b6004355f52600c602052600160405f20018054906801000000000000000091828110156124825761454091600182018155615b84565b6146ea578461454e91615e08565b6004355f52600c60205242600360405f200155600d60205260405f20908154908110156124825761458491600182018155615c7e565b9190916146ea576145f29260a08261459f6006945186615e08565b602081015160018601556145ba604082015160028701615e08565b606081015160038601556145e360808201511515600487019060ff801983541691151516179055565b01516005840155519101615e08565b61462860405160208101906146126020828651611e0b8187858b01615941565b5190206004355f52601560205260405f20615f94565b6004355f52601560205242600260405f20015560405160208183516146508183858801615941565b8101600f815203019020600160ff198254161790557ffd5e5a7cf0d8f7f9d7913423013b2631ed077c79dec6f082b95fe336f35112ad604051602081528061469f600435946020830190615962565b0390a26004355f52601560205260405f207f7c11262c02c9b4cb7d2da32ecb97a6ceb55da913d762dcf5c95dabbe032e3cc960405160208152806130e96004359460208301906161e2565b634e487b7160e01b5f525f60045260245ffd5b50335f9081527f17d1276acf776df712513cd7e943076446ad62eef46fc257e0602ed40109c3c6602052604090205460ff1661447d565b506004355f52601660205260405f20335f5260205260ff60405f205416614476565b346104d75760203660031901126104d7576004355f52600c6020526147c460405f2061083e61478482615ad4565b916002810154906003810154906001600160a01b0360048201546147af600660058501549401615ad4565b9360405198899860e08a5260e08a0190615962565b956020890152604088015260ff81161515606088015260081c16608086015260a085015283820360c0850152615962565b346104d75761480336615a72565b919061480e82616f48565b916148256001600160a01b03938433911614615fcc565b805f5260206002815261483f8460405f2054161515616017565b815f526018815260405f20835f5281528360405f20951694855f52815260ff60405f2054161561493457815f526018815260405f20835f52815260405f20855f52815260405f2060ff198154169055815f526019815260405f2090835f525260405f20925f5b845480821015614929578290876148bc8489615b84565b939054600394851b1c16146148db5750506148d690615dc3565b6148a5565b5f969394959692919219810190811161293b57614903946134a5936134786134859387615b84565b7f20859842ab9544b970ada01b00e246796284ff462ad05d01f4bec31f4af0c9645f80a4005b505050909150614903565b6064906040519062461bcd60e51b82526004820152601060248201527f526f6c65206e6f74206772616e746564000000000000000000000000000000006044820152fd5b346104d75760403660031901126104d757614991615a11565b336001600160a01b038216036149ad57610afb90600435616858565b60046040517f6697b232000000000000000000000000000000000000000000000000000000008152fd5b346104d7575f3660031901126104d75760206040517f625b774358699f4a47bba9565d63381cd2eee703dfa40285af14a25de800ac638152f35b346104d75760603660031901126104d757600435614a2d615a11565b9060443591614a3b82616f48565b614a516001600160a01b03918233911614615fcc565b825f5260209160028352614a6c8260405f2054161515616017565b1692835f52601a8252614a8660ff60405f20541615615c97565b825f52601b8252614a9e60ff60405f2054161561614c565b614aad60ff601e541615615ce2565b614ab884151561621c565b8015614b0057907fa15eed224a95aef6dd5e4fd36af3e3587fae39fb0a67b5898263ce679340dac991835f526013825260405f20855f5282528060405f2055604051908152a3005b6064826040519062461bcd60e51b82526004820152601260248201527f496e76616c696420616363657373206b657900000000000000000000000000006044820152fd5b346104d7576020806003193601126104d7576004355f60e0604051614b68816157ba565b8281528285820152826040820152826060820152606060808201528260a08201528260c08201520152614b9d6139dc82616f48565b5f526011815260405f2060405190614bb4826157ba565b8054825260018101549083830191825260028101549160408401928352600382015460608501908152614be960048401615ad4565b906080860191825260058401549460a0870195865260ff600760068701549660c08a019788520154169360e088019415158552604051988998818a5251908901525160408801525160608701525160808601525191614c56610100938460a0880152610120870190615962565b935160c08601525160e0850152511515908301520390f35b346104d75760403660031901126104d757610afb600435614c8d615a11565b90805f526008602052614ca6600160405f2001546167b7565b6167d9565b346104d7575f3660031901126104d7576020601d54604051908152f35b346104d7575f3660031901126104d757602060405160028152f35b346104d75760203660031901126104d757600435805f526002602052614d176001600160a01b0360405f2054161515616017565b5f52601160205260405f20604051614d2e816157ba565b81548152600182015460208201526002820154604082015260038201546060820152614d5c60048301615ad4565b6080820152600582015460a08201819052600683015460c0830181905260079093015460ff16151560e090920182905260408051918252602082019390935291820152606090f35b346104d757614db236615a5c565b90805f526002602052614dd36001600160a01b0360405f2054161515616017565b5f52601260205260405f20905f52602052602060ff60405f2054166040519015158152f35b346104d75760203660031901126104d7576004355f5260086020526020600160405f200154604051908152f35b346104d757610afb614e3636615a27565b91616912565b346104d75760403660031901126104d757600435614e58615a11565b815f52602091600283526001600160a01b0390614e7c8260405f2054161515616017565b614e8581616f48565b821633148015614f61575b8015614f23575b15614eb9575f526013835260405f2091165f52815260405f2054604051908152f35b6084846040519062461bcd60e51b82526004820152602160248201527f4e6f7420617574686f72697a656420746f207669657720616363657373206b6560448201527f79000000000000000000000000000000000000000000000000000000000000006064820152fd5b507fa49807205ce4d355092ef5a8a18f56e8913cf4a201fbe287825b095693c217755f526008845260405f20335f52845260ff60405f205416614e97565b503382841614614e90565b346104d7575f3660031901126104d757602060405160048152f35b346104d75760403660031901126104d757600435614fa3615a11565b90614fad81616f48565b91614fc46001600160a01b03938433911614615fcc565b815f5260209260028452614fdf8160405f2054161515616017565b811692835f52601a8152614ffa60ff60405f20541615615c97565b825f52601b815261501260ff60405f2054161561614c565b61502160ff601e541615615ce2565b61502c84151561621c565b825f526016815260405f20845f52815260ff60405f2054166150a15790601761507b92845f526016815260405f20865f52815260405f20600160ff19825416179055845f525260405f206160ad565b7f6297f7a1c3dc37c05e97d86a1c89e62b1355fc805a3d6a4205fc191a04cd60f45f80a3005b6064906040519062461bcd60e51b82526004820152601760248201527f5573657220616c726561647920617574686f72697a65640000000000000000006044820152fd5b346104d7576020806003193601126104d75760043590815f5260029182825261511c6001600160a01b0360405f2054161515616017565b5f52600d815260405f20805461513181615869565b9361513f6040519586615847565b8185525f9283528383208486019391845b84841061521057604080518881528951818a018190525f92600582901b83018101918a918c9085015b8287106151865785850386f35b909192938280615200600193603f198a820301865288516151cd6151b3825160e0855260e0850190615962565b858301518685015260408301518482036040860152615962565b916060808301519082015260808083015115159082015260a0808301519082015260c08092015191818403910152615962565b9601920196019592919092615179565b60078760019260409a999a516152258161579e565b61522e87615ad4565b81528487015483820152615243868801615ad4565b60408201526003870154606082015260ff60048801541615156080820152600587015460a082015261527760068801615ad4565b60c0820152815201930193019291969596615150565b346104d7575f3660031901126104d7576020600b54604051908152f35b346104d75760403660031901126104d7576152c36159fb565b6024356152cf81616f48565b33151580615390575b80615366575b6153365781906001600160a01b03809416938491167f8c5be1e5ebec7d5bd14f71427d1e84f3dd0314c0f7b2291e5b200ac8c7c3b9255f80a45f52600460205260405f20906001600160a01b03198254161790555f80f35b60246040517fa9fbf51f000000000000000000000000000000000000000000000000000000008152336004820152fd5b506001600160a01b0381165f52600560205260405f20335f5260205260ff60405f205416156152de565b50336001600160a01b03821614156152d8565b346104d7576153fe6153b4366159cb565b6153c2610fec839493616f48565b825f52601b6020526153db60ff60405f2054161561614c565b6153ea60ff601e541615615ce2565b825f526015602052600160405f2001615e08565b5f52601560205242600260405f2001555f80f35b346104d75760203660031901126104d75760043561542f81616f48565b505f52600460205260206001600160a01b0360405f205416604051908152f35b346104d7575f3660031901126104d7576040515f805461546e81615a9c565b808452906001908181169081156119a257506001146154975761083e84610f4a81860382615847565b5f80805292507f290decd9548b62a8d60345a988386fc84ba6bc95484008f6362f93160ef3e5635b8284106154d7575050508101602001610f4a8261193a565b805460208587018101919091529093019281016154bf565b346104d75760203660031901126104d7576004356001600160e01b031981168091036104d757807f123456780000000000000000000000000000000000000000000000000000000060209214908115615679575b811561564f575b811561555b57506040519015158152f35b7f7965db0b0000000000000000000000000000000000000000000000000000000081149150811561558e575b5082610695565b7f49064906000000000000000000000000000000000000000000000000000000008114915081156155c1575b5082615587565b7f80ac58cd00000000000000000000000000000000000000000000000000000000811491508115615625575b81156155fb575b50826155ba565b7f01ffc9a700000000000000000000000000000000000000000000000000000000915014826155f4565b7f5b5e139f00000000000000000000000000000000000000000000000000000000811491506155ed565b7fabcdef12000000000000000000000000000000000000000000000000000000008114915061554a565b7f876543210000000000000000000000000000000000000000000000000000000081149150615543565b346104d75760603660031901126104d75760043567ffffffffffffffff6024358181116104d7576156d8903690600401615881565b916044359182116104d75761083e926156f86118f59336906004016158fb565b9160606040805161570881615782565b5f81528260208201520152805f5260026020526157336001600160a01b0360405f2054161515616017565b616267565b346104d75760203660031901126104d757600435805f52600260205261576c6001600160a01b0360405f2054161515616017565b5f52601c602052602060405f2054604051908152f35b6060810190811067ffffffffffffffff82111761248257604052565b60e0810190811067ffffffffffffffff82111761248257604052565b610100810190811067ffffffffffffffff82111761248257604052565b6080810190811067ffffffffffffffff82111761248257604052565b60a0810190811067ffffffffffffffff82111761248257604052565b6020810190811067ffffffffffffffff82111761248257604052565b6040810190811067ffffffffffffffff82111761248257604052565b90601f8019910116810190811067ffffffffffffffff82111761248257604052565b67ffffffffffffffff81116124825760051b60200190565b81601f820112156104d75780359161589883615869565b926158a66040519485615847565b808452602092838086019260051b8201019283116104d7578301905b8282106158d0575050505090565b813581529083019083016158c2565b67ffffffffffffffff811161248257601f01601f191660200190565b81601f820112156104d757803590615912826158df565b926159206040519485615847565b828452602083830101116104d757815f926020809301838601378301015290565b5f5b8381106159525750505f910152565b8181015183820152602001615943565b9060209161597b81518092818552858086019101615941565b601f01601f1916010190565b906159c8916020815281511515602082015260406159b360208401516060838501526080840190615962565b920151906060601f1982850301910152615962565b90565b9060406003198301126104d757600435916024359067ffffffffffffffff82116104d7576159c8916004016158fb565b600435906001600160a01b03821682036104d757565b602435906001600160a01b03821682036104d757565b60609060031901126104d7576001600160a01b039060043582811681036104d7579160243590811681036104d7579060443590565b60409060031901126104d7576004359060243590565b60609060031901126104d75760043590602435906044356001600160a01b03811681036104d75790565b90600182811c92168015615aca575b6020831014615ab657565b634e487b7160e01b5f52602260045260245ffd5b91607f1691615aab565b9060405191825f825492615ae784615a9c565b9081845260019485811690815f14615b525750600114615b12575b5050615b1092500383615847565b565b909391505f52602090815f20935f915b818310615b3a575050615b1093508201015f80615b02565b85548884018501529485019487945091830191615b22565b915050615b1094506020925060ff191682840152151560051b8201015f80615b02565b6024359081151582036104d757565b8054821015615b99575f5260205f2001905f90565b634e487b7160e01b5f52603260045260245ffd5b9081518082526020808093019301915f5b828110615bcc575050505090565b835185529381019392810192600101615bbe565b908082519081815260208091019281808460051b8301019501935f915b848310615c0d5750505050505090565b9091929394958480615c2b600193601f198682030187528a51615962565b9801930193019194939290615bfd565b602090816040818301928281528551809452019301915f5b828110615c61575050505090565b83516001600160a01b031685529381019392810192600101615c53565b8054821015615b99575f52600760205f20910201905f90565b15615c9e57565b606460405162461bcd60e51b815260206004820152601660248201527f4164647265737320697320626c61636b6c6973746564000000000000000000006044820152fd5b15615ce957565b606460405162461bcd60e51b815260206004820152601660248201527f456d657267656e637920706175736520616374697665000000000000000000006044820152fd5b15615d3457565b606460405162461bcd60e51b815260206004820152601760248201527f4b6e6f776c6564676520686173682072657175697265640000000000000000006044820152fd5b15615d7f57565b606460405162461bcd60e51b815260206004820152601b60248201527f4b6e6f776c65646765206861736820616c7265616479207573656400000000006044820152fd5b5f19811461293b5760010190565b805115615b995760200190565b8051821015615b995760209160051b010190565b818110615dfd575050565b5f8155600101615df2565b919091825167ffffffffffffffff811161248257615e268254615a9c565b601f8111615eca575b50602080601f8311600114615e6a5750819293945f92615e5f575b50508160011b915f199060031b1c1916179055565b015190505f80615e4a565b90601f19831695845f52825f20925f905b888210615eb257505083600195969710615e9a575b505050811b019055565b01515f1960f88460031b161c191690555f8080615e90565b80600185968294968601518155019501930190615e7b565b615ef590835f5260205f20601f840160051c81019160208510615efb575b601f0160051c0190615df2565b5f615e2f565b9091508190615ee8565b615f0f8154615a9c565b9081615f19575050565b81601f5f9311600114615f2a575055565b908083918252615f49601f60208420940160051c840160018501615df2565b5555565b68010000000000000000821161248257805491808255828110615f6f57505050565b5f9182526020822092830192015b828110615f8957505050565b818155600101615f7d565b80549068010000000000000000821015612482578161273d916001615fbb94018155615b84565b9055565b9190820180921161293b57565b15615fd357565b606460405162461bcd60e51b815260206004820152600f60248201527f4e6f7420746f6b656e206f776e657200000000000000000000000000000000006044820152fd5b1561601e57565b606460405162461bcd60e51b815260206004820152601460248201527f546f6b656e20646f6573206e6f742065786973740000000000000000000000006044820152fd5b1561606957565b606460405162461bcd60e51b815260206004820152600f60248201527f496e76616c6964206163636f756e7400000000000000000000000000000000006044820152fd5b90815491680100000000000000008310156124825782613485916001615b1095018155615b84565b80548015612927575f1901906160eb8282615b84565b6001600160a01b0382549160031b1b1916905555565b1561610857565b606460405162461bcd60e51b815260206004820152600e60248201527f4e6f7420617574686f72697a65640000000000000000000000000000000000006044820152fd5b1561615357565b606460405162461bcd60e51b815260206004820152600f60248201527f546f6b656e2069732066726f7a656e00000000000000000000000000000000006044820152fd5b1561619e57565b606460405162461bcd60e51b815260206004820152601660248201527f4149207374617465206973206e6f7420616374697665000000000000000000006044820152fd5b9081548082526020809201925f52815f20915f905b828210616205575050505090565b8354855293840193600193840193909101906161f7565b1561622357565b606460405162461bcd60e51b815260206004820152601460248201527f496e76616c6964207573657220616464726573730000000000000000000000006044820152fd5b5f908152602091601583526162896040916162908385208451938480926161e2565b0383615847565b805182510361638557835b815181101561632f576162ae8183615dde565b516162b98285615dde565b51036162cd576162c890615dc3565b61629b565b505050809192935051926162e084615782565b8284528151906162ef8261582b565b600d82527f48617368206d69736d6174636800000000000000000000000000000000000000818301528401528051916163278361580f565b825282015290565b505050905091909180519261634384615782565b600184528151906163538261582b565b601282527f4f776e65727368697020766572696669656400000000000000000000000000008183015284015282015290565b505080519350909161639684615782565b8284528151906163a58261582b565b601382527f4861736820636f756e74206d69736d6174636800000000000000000000000000818301528401528051916163278361580f565b909291926163ea816158df565b916163f86040519384615847565b8294828452828201116104d7576020615b10930190615941565b916164759294939460409561645d8751917f018e68d3000000000000000000000000000000000000000000000000000000008352836004840152606060248401526064830190615bad565b60031982820301604483015281805f9788938a615962565b0381305afa9081156166815785916165be575b508051156165b4575061649a90616f48565b6001600160a01b038080941691160361655b57161561650457508151916164c083615782565b6001835280516164cf8161582b565b601181527f5472616e736665722076657269666965640000000000000000000000000000006020820152602084015282015290565b905081519161651283615782565b81835280516165208161582b565b601281527f496e76616c696420746f20616464726573730000000000000000000000000000602082015260208401528051916163278361580f565b5050905081519161656b83615782565b81835280516165798161582b565b601481527f496e76616c69642066726f6d2061646472657373000000000000000000000000602082015260208401528051916163278361580f565b9550505050505090565b90503d8086833e6165cf8183615847565b810160208282031261667d57815167ffffffffffffffff928382116166755701916060838303126166715788519261660684615782565b80518015158103616679578452602081015182811161667957810183601f82011215616679578381602061663c935191016163dd565b602085015289810151918211616675570181601f8201121561667157805161666792916020016163dd565b878201525f616488565b8680fd5b8780fd5b8880fd5b8580fd5b87513d87823e3d90fd5b90815461669781615869565b926166a56040519485615847565b8184525f90815260208082208186015b8484106166c3575050505050565b60018381926166d185615ad4565b8152019201930192906166b5565b80545f8255806166ed575050565b615b10915f5260205f2090810190615df2565b805f5260026020526167206001600160a01b0360405f2054161515616017565b5f52601b60205260ff60405f205416158061674f575b8061673e5790565b50601c60205260405f205442101590565b5060ff601e541615616736565b335f9081527f17d1276acf776df712513cd7e943076446ad62eef46fc257e0602ed40109c3c660205260409020547fa49807205ce4d355092ef5a8a18f56e8913cf4a201fbe287825b095693c217759060ff1615612e695750565b805f52600860205260405f20335f5260205260ff60405f20541615612e695750565b905f9180835260086020526001600160a01b036040842092169182845260205260ff604084205416155f146168535780835260086020526040832082845260205260408320600160ff198254161790557f2f8788117e7eff1d82e926ec794901d17c78024a50270940304540a733656f0d339380a4600190565b505090565b905f9180835260086020526001600160a01b036040842092169182845260205260ff6040842054165f14616853578083526008602052604083208284526020526040832060ff1981541690557ff6391f5c32d9c69d2a47ea670b442974b53935d1edc7fd64eb21e047a839171b339380a4600190565b6001600160a01b036007541633036168e257565b60246040517f118cdaa7000000000000000000000000000000000000000000000000000000008152336004820152fd5b90916001600160a01b0390818416918215612af5575f938285526020600281526040958387822054169182151590818092616ead575b616d6d575b600281528589842054169733616d0c575b88616cd7575b8084526003948583528a852093600194858154019055898652600284528b8620836001600160a01b031982541617905589838c7fddf252ad1be2c89b69c2b068fc378daa952ba7f163c4a11628f55a4df523b3ef8980a480616cd0575b616a1b575b50505050505090919293945016928383036169e15750505050565b6064945051927f64283d7b000000000000000000000000000000000000000000000000000000008452600484015260248301526044820152fd5b600c8352616a6660049c8d8d8820019074ffffffffffffffffffffffffffffffffffffffff001974ffffffffffffffffffffffffffffffffffffffff0083549260081b169116179055565b8452600e825289842084845b616c04575b5050909192809495969798999a5052600e8152616a96878a8520615f94565b885191616aa2836157f3565b7f9f2df0fed2c77648de5860a4cc508cd0818c85b8b8a1ab4ceeef8d981c8956a683527f71f3d55856e4058ed06ee057d79ada615f65cdf5f9ee88181b914225088f834f828401527f625b774358699f4a47bba9565d63381cd2eee703dfa40285af14a25de800ac638a8401527f0ce23c3e399818cfee81a7ab0880f714e53d7672b08df0fa62f2843416e1ea096060840152836080840152835b60058110616b50578a99989796956169c6565b88855260198084528b8620616b658387616eb5565b51875284528b862083878e825b616ba7575b5050505090616ba2918a875284528b8620616b928287616eb5565b518752845261291c8c87206166df565b616b3d565b8d8454831015616bfe5790616bf792918b5260188952808b20616bca888c616eb5565b518c528952808b208e8d616bde8589615b84565b9054911b1c168c5289528a20805460ff19169055615dc3565b8e82616b72565b50616b77565b815480821015616cca578a616c198385615b84565b9054908a1b1c14616c37575090616c308592615dc3565b9091616a72565b92939495969798999a9b9c905f1993848101908111616cb75761273d616c60616c6d9286615b84565b9054908c1b1c9285615b84565b90558154908115616ca45750820191616c868383615b84565b90918254918a1b1b1916905555908998979695949392915f80616a77565b876031602492634e487b7160e01b835252fd5b602489601185634e487b7160e01b835252fd5b50616a77565b50836169c1565b616cf6885f52600460205260405f206001600160a01b03198154169055565b8884526003825289842080545f19019055616964565b616d1788338b616ec6565b61695e5789888a616d38576024915190637e27328960e01b82526004820152fd5b60449151907f177e802f0000000000000000000000000000000000000000000000000000000082523360048301526024820152fd5b838352601a815260ff8984205416616e6a57878352601a815260ff8984205416616e2757868352601b8152616da860ff8a852054161561614c565b616db760ff601e541615615ce2565b868352601c8152888320544210616de457616dd4601d5442615fbf565b878452601c82528984205561694d565b60649089519062461bcd60e51b82526004820152601860248201527f5472616e7366657220636f6f6c646f776e2061637469766500000000000000006044820152fd5b60649089519062461bcd60e51b82526004820152601960248201527f546f206164647265737320697320626c61636b6c6973746564000000000000006044820152fd5b60649089519062461bcd60e51b82526004820152601b60248201527f46726f6d206164647265737320697320626c61636b6c697374656400000000006044820152fd5b506001616948565b906005811015615b995760051b0190565b91906001600160a01b03809116908115159384616ee5575b5050505090565b81929394501692828414938415616f25575b508315616f0b575b5050505f808080616ede565b909192505f52600460205260405f205416145f8080616eff565b9093505f52600560205260405f20825f5260205260ff60405f205416925f616ef7565b805f5260026020526001600160a01b0360405f205416908115616f69575090565b60249060405190637e27328960e01b82526004820152fd5b90939192833b616f93575b5050505050565b6001600160a01b039592939495809516946040519681630a85bd0160e11b94858a5216600489015216602487015260448601526080606486015284616fde6020946084830190615962565b039483815f978189895af1869181617088575b50617050575050503d5f14617047573d61700a816158df565b906170186040519283615847565b81528093823d92013e5b825192836170425760248360405190633250574960e11b82526004820152fd5b019050fd5b60609250617022565b9092506001600160e01b0319919450160361707057505f80808080616f8c565b60249060405190633250574960e11b82526004820152fd5b9091508481813d83116170c1575b6170a08183615847565b8101031261667157516001600160e01b03198116810361667157905f616ff1565b503d61709656fea264697066735822122052cdf97ab05e0d70fbbf30367c1cf814dfedcd0e82906f9854280da9f6e2f2a264736f6c634300081400332f8788117e7eff1d82e926ec794901d17c78024a50270940304540a733656f0d","linkReferences":{}},"methodIdentifiers":{"ADMIN_ROLE()":"75b238fc","DEFAULT_ADMIN_ROLE()":"a217fddf","KNOWLEDGE_MANAGER_ROLE()":"351bda1a","MINTER_ROLE()":"d5391393","MODERATOR_ROLE()":"797669c9","PERMISSION_AUTHORIZE()":"652d3cca","PERMISSION_BURN()":"fc7244cd","PERMISSION_READ()":"c26fd5bd","PERMISSION_TRANSFER()":"1fd7b882","PERMISSION_WRITE()":"283c5c97","VERIFIER_ROLE()":"e7705db6","addEncryptedKnowledgeChunk(uint256,bytes32,bytes32,string)":"a70bdff2","addKnowledge(uint256,string,(string,uint256,string,uint256,bool,bytes32,string))":"3ed92d31","aiStates(uint256)":"3d93eec7","approve(address,uint256)":"095ea7b3","authorizeUser(uint256,address)":"1b9b507a","balanceOf(address)":"70a08231","burn(uint256)":"42966c68","canTransfer(uint256)":"4d4f6ea9","deactivateINFT(uint256)":"56ff1cdf","defaultTransferCooldown()":"2ae5bbdf","emergencyPause()":"51858e27","getAIState(uint256)":"51e904f2","getApproved(uint256)":"081812fc","getAuthorizedUsers(uint256)":"d35e0586","getDataHashes(uint256)":"68b78624","getEncryptedKnowledgeIndex(uint256)":"43039db2","getEncryptedModelState(uint256)":"2fdff19b","getEncryptionVersion(uint256)":"f4c4a6ad","getKnowledgeHashes(uint256)":"b7975972","getKnowledgeIndexSummary(uint256)":"d4181ebf","getKnowledgeMetadata(uint256)":"1a9e69b1","getMetadataURI(uint256)":"bde644fb","getModelStateSummary(uint256)":"255446fe","getPrivateMetadata(uint256)":"b3189c2a","getPrivateMetadataLastUpdate(uint256)":"ef952756","getRoleAdmin(bytes32)":"248a9ca3","getTokenRoleMembers(uint256,bytes32)":"b53c24d7","getTokenSecurityStatus(uint256)":"5817ce7f","getTransferCooldown(uint256)":"00b044bd","getUserAccessKey(uint256,address)":"2306a744","getUserINFTs(address)":"a329c714","grantRole(bytes32,address)":"2f2ff15d","grantTokenRole(uint256,bytes32,address)":"d71bb38c","grantUserAccessKey(uint256,address,bytes32)":"30f2f472","hasRole(bytes32,address)":"91d14854","hasTokenRole(uint256,bytes32,address)":"eba1958e","isAddressBlacklisted(address)":"90683e8c","isApprovedForAll(address,address)":"e985e9c5","isAuthorized(uint256,address)":"609c6d7f","isContentHashVerified(uint256,bytes32)":"254a031e","isKnowledgeHashUsed(string)":"7c2f7d2e","isMetadataEncrypted(uint256)":"75fc86a7","isTokenFrozen(uint256)":"cc888bab","knowledgeMetadata(uint256,uint256)":"e3356a7a","mintINFT(address,string,string,string)":"9246d058","name()":"06fdde03","owner()":"8da5cb5b","ownerOf(uint256)":"6352211e","paused()":"5c975abb","reactivateINFT(uint256)":"a7da01fc","recordInteraction(uint256,string)":"c815b61d","renounceOwnership()":"715018a6","renounceRole(bytes32,address)":"36568abe","revokeRole(bytes32,address)":"d547741f","revokeTokenRole(uint256,bytes32,address)":"3cee790c","revokeUser(uint256,address)":"5ee7ffff","revokeUserAccessKey(uint256,address)":"60878ebb","safeTransferFrom(address,address,uint256)":"42842e0e","safeTransferFrom(address,address,uint256,bytes)":"b88d4fde","setAddressBlacklisted(address,bool)":"ae6d125d","setApprovalForAll(address,bool)":"a22cb465","setDefaultTransferCooldown(uint256)":"bc6d1ca9","setEmergencyPause(bool)":"d8d1a657","setMetadataURI(uint256,string)":"087dce94","setTokenFrozen(uint256,bool)":"78e652b5","setTransferCooldown(uint256,uint256)":"ff9ddeb4","supportsInterface(bytes4)":"01ffc9a7","symbol()":"95d89b41","tokenURI(uint256)":"c87b56dd","totalSupply()":"18160ddd","transferFrom(address,address,uint256)":"23b872dd","transferOwnership(address)":"f2fde38b","updateEncryptedModelState(uint256,bytes32,bytes32,bytes32,bytes32)":"48877068","updateEncryptionVersion(uint256,uint256)":"8c4cba8b","updateMetadata(uint256,bytes32[])":"6ad7158f","updateModelVersion(uint256,string)":"ba113350","usedKnowledgeHashes(string)":"178c2f5f","userINFTs(address,uint256)":"3eddf96d","verifyOwnership(uint256,bytes32[],bytes)":"018e68d3","verifyTransfer(uint256,address,address,bytes32[],bytes)":"9efb6144"},"id":0}