{"abi":[{"type":"constructor","inputs":[],"stateMutability":"nonpayable"},{"type":"function","name":"addKnowledge","inputs":[{"name":"tokenId","type":"uint256","internalType":"uint256"},{"name":"knowledgeHash","type":"string","internalType":"string"},{"name":"metadata","type":"tuple","internalType":"struct IntellifyINFT.KnowledgeMetadata","components":[{"name":"contentType","type":"string","internalType":"string"},{"name":"fileSize","type":"uint256","internalType":"uint256"},{"name":"uploadTimestamp","type":"uint256","internalType":"uint256"},{"name":"isEncrypted","type":"bool","internalType":"bool"}]}],"outputs":[],"stateMutability":"nonpayable"},{"type":"function","name":"aiStates","inputs":[{"name":"","type":"uint256","internalType":"uint256"}],"outputs":[{"name":"modelVersion","type":"string","internalType":"string"},{"name":"interactionCount","type":"uint256","internalType":"uint256"},{"name":"lastUpdated","type":"uint256","internalType":"uint256"},{"name":"isActive","type":"bool","internalType":"bool"}],"stateMutability":"view"},{"type":"function","name":"approve","inputs":[{"name":"to","type":"address","internalType":"address"},{"name":"tokenId","type":"uint256","internalType":"uint256"}],"outputs":[],"stateMutability":"nonpayable"},{"type":"function","name":"authorizeUser","inputs":[{"name":"tokenId","type":"uint256","internalType":"uint256"},{"name":"user","type":"address","internalType":"address"}],"outputs":[],"stateMutability":"nonpayable"},{"type":"function","name":"balanceOf","inputs":[{"name":"owner","type":"address","internalType":"address"}],"outputs":[{"name":"","type":"uint256","internalType":"uint256"}],"stateMutability":"view"},{"type":"function","name":"burn","inputs":[{"name":"tokenId","type":"uint256","internalType":"uint256"}],"outputs":[],"stateMutability":"nonpayable"},{"type":"function","name":"deactivateINFT","inputs":[{"name":"tokenId","type":"uint256","internalType":"uint256"}],"outputs":[],"stateMutability":"nonpayable"},{"type":"function","name":"getAIState","inputs":[{"name":"tokenId","type":"uint256","internalType":"uint256"}],"outputs":[{"name":"","type":"tuple","internalType":"struct IntellifyINFT.AIState","components":[{"name":"modelVersion","type":"string","internalType":"string"},{"name":"knowledgeHashes","type":"string[]","internalType":"string[]"},{"name":"interactionCount","type":"uint256","internalType":"uint256"},{"name":"lastUpdated","type":"uint256","internalType":"uint256"},{"name":"isActive","type":"bool","internalType":"bool"}]}],"stateMutability":"view"},{"type":"function","name":"getApproved","inputs":[{"name":"tokenId","type":"uint256","internalType":"uint256"}],"outputs":[{"name":"","type":"address","internalType":"address"}],"stateMutability":"view"},{"type":"function","name":"getAuthorizedUsers","inputs":[{"name":"tokenId","type":"uint256","internalType":"uint256"}],"outputs":[{"name":"","type":"address[]","internalType":"address[]"}],"stateMutability":"view"},{"type":"function","name":"getDataHashes","inputs":[{"name":"tokenId","type":"uint256","internalType":"uint256"}],"outputs":[{"name":"","type":"bytes32[]","internalType":"bytes32[]"}],"stateMutability":"view"},{"type":"function","name":"getKnowledgeHashes","inputs":[{"name":"tokenId","type":"uint256","internalType":"uint256"}],"outputs":[{"name":"","type":"string[]","internalType":"string[]"}],"stateMutability":"view"},{"type":"function","name":"getKnowledgeMetadata","inputs":[{"name":"tokenId","type":"uint256","internalType":"uint256"}],"outputs":[{"name":"","type":"tuple[]","internalType":"struct IntellifyINFT.KnowledgeMetadata[]","components":[{"name":"contentType","type":"string","internalType":"string"},{"name":"fileSize","type":"uint256","internalType":"uint256"},{"name":"uploadTimestamp","type":"uint256","internalType":"uint256"},{"name":"isEncrypted","type":"bool","internalType":"bool"}]}],"stateMutability":"view"},{"type":"function","name":"getUserINFTs","inputs":[{"name":"user","type":"address","internalType":"address"}],"outputs":[{"name":"","type":"uint256[]","internalType":"uint256[]"}],"stateMutability":"view"},{"type":"function","name":"isApprovedForAll","inputs":[{"name":"owner","type":"address","internalType":"address"},{"name":"operator","type":"address","internalType":"address"}],"outputs":[{"name":"","type":"bool","internalType":"bool"}],"stateMutability":"view"},{"type":"function","name":"isAuthorized","inputs":[{"name":"tokenId","type":"uint256","internalType":"uint256"},{"name":"user","type":"address","internalType":"address"}],"outputs":[{"name":"","type":"bool","internalType":"bool"}],"stateMutability":"view"},{"type":"function","name":"isKnowledgeHashUsed","inputs":[{"name":"knowledgeHash","type":"string","internalType":"string"}],"outputs":[{"name":"","type":"bool","internalType":"bool"}],"stateMutability":"view"},{"type":"function","name":"knowledgeMetadata","inputs":[{"name":"","type":"uint256","internalType":"uint256"},{"name":"","type":"uint256","internalType":"uint256"}],"outputs":[{"name":"contentType","type":"string","internalType":"string"},{"name":"fileSize","type":"uint256","internalType":"uint256"},{"name":"uploadTimestamp","type":"uint256","internalType":"uint256"},{"name":"isEncrypted","type":"bool","internalType":"bool"}],"stateMutability":"view"},{"type":"function","name":"mintINFT","inputs":[{"name":"to","type":"address","internalType":"address"},{"name":"metadataURI","type":"string","internalType":"string"},{"name":"knowledgeHash","type":"string","internalType":"string"},{"name":"modelVersion","type":"string","internalType":"string"}],"outputs":[{"name":"","type":"uint256","internalType":"uint256"}],"stateMutability":"nonpayable"},{"type":"function","name":"name","inputs":[],"outputs":[{"name":"","type":"string","internalType":"string"}],"stateMutability":"view"},{"type":"function","name":"owner","inputs":[],"outputs":[{"name":"","type":"address","internalType":"address"}],"stateMutability":"view"},{"type":"function","name":"ownerOf","inputs":[{"name":"tokenId","type":"uint256","internalType":"uint256"}],"outputs":[{"name":"","type":"address","internalType":"address"}],"stateMutability":"view"},{"type":"function","name":"paused","inputs":[],"outputs":[{"name":"","type":"bool","internalType":"bool"}],"stateMutability":"view"},{"type":"function","name":"reactivateINFT","inputs":[{"name":"tokenId","type":"uint256","internalType":"uint256"}],"outputs":[],"stateMutability":"nonpayable"},{"type":"function","name":"recordInteraction","inputs":[{"name":"tokenId","type":"uint256","internalType":"uint256"},{"name":"interactionType","type":"string","internalType":"string"}],"outputs":[],"stateMutability":"nonpayable"},{"type":"function","name":"renounceOwnership","inputs":[],"outputs":[],"stateMutability":"nonpayable"},{"type":"function","name":"revokeUser","inputs":[{"name":"tokenId","type":"uint256","internalType":"uint256"},{"name":"user","type":"address","internalType":"address"}],"outputs":[],"stateMutability":"nonpayable"},{"type":"function","name":"safeTransferFrom","inputs":[{"name":"from","type":"address","internalType":"address"},{"name":"to","type":"address","internalType":"address"},{"name":"tokenId","type":"uint256","internalType":"uint256"}],"outputs":[],"stateMutability":"nonpayable"},{"type":"function","name":"safeTransferFrom","inputs":[{"name":"from","type":"address","internalType":"address"},{"name":"to","type":"address","internalType":"address"},{"name":"tokenId","type":"uint256","internalType":"uint256"},{"name":"data","type":"bytes","internalType":"bytes"}],"outputs":[],"stateMutability":"nonpayable"},{"type":"function","name":"setApprovalForAll","inputs":[{"name":"operator","type":"address","internalType":"address"},{"name":"approved","type":"bool","internalType":"bool"}],"outputs":[],"stateMutability":"nonpayable"},{"type":"function","name":"supportsInterface","inputs":[{"name":"interfaceId","type":"bytes4","internalType":"bytes4"}],"outputs":[{"name":"","type":"bool","internalType":"bool"}],"stateMutability":"view"},{"type":"function","name":"symbol","inputs":[],"outputs":[{"name":"","type":"string","internalType":"string"}],"stateMutability":"view"},{"type":"function","name":"tokenURI","inputs":[{"name":"tokenId","type":"uint256","internalType":"uint256"}],"outputs":[{"name":"","type":"string","internalType":"string"}],"stateMutability":"view"},{"type":"function","name":"totalSupply","inputs":[],"outputs":[{"name":"","type":"uint256","internalType":"uint256"}],"stateMutability":"view"},{"type":"function","name":"transferFrom","inputs":[{"name":"from","type":"address","internalType":"address"},{"name":"to","type":"address","internalType":"address"},{"name":"tokenId","type":"uint256","internalType":"uint256"}],"outputs":[],"stateMutability":"nonpayable"},{"type":"function","name":"transferOwnership","inputs":[{"name":"newOwner","type":"address","internalType":"address"}],"outputs":[],"stateMutability":"nonpayable"},{"type":"function","name":"updateMetadata","inputs":[{"name":"tokenId","type":"uint256","internalType":"uint256"},{"name":"newDataHashes","type":"bytes32[]","internalType":"bytes32[]"}],"outputs":[],"stateMutability":"nonpayable"},{"type":"function","name":"updateModelVersion","inputs":[{"name":"tokenId","type":"uint256","internalType":"uint256"},{"name":"newModelVersion","type":"string","internalType":"string"}],"outputs":[],"stateMutability":"nonpayable"},{"type":"function","name":"usedKnowledgeHashes","inputs":[{"name":"","type":"string","internalType":"string"}],"outputs":[{"name":"","type":"bool","internalType":"bool"}],"stateMutability":"view"},{"type":"function","name":"userINFTs","inputs":[{"name":"","type":"address","internalType":"address"},{"name":"","type":"uint256","internalType":"uint256"}],"outputs":[{"name":"","type":"uint256","internalType":"uint256"}],"stateMutability":"view"},{"type":"event","name":"AIInteraction","inputs":[{"name":"tokenId","type":"uint256","indexed":true,"internalType":"uint256"},{"name":"user","type":"address","indexed":true,"internalType":"address"},{"name":"interactionType","type":"string","indexed":false,"internalType":"string"}],"anonymous":false},{"type":"event","name":"AIStateUpdated","inputs":[{"name":"tokenId","type":"uint256","indexed":true,"internalType":"uint256"},{"name":"interactionCount","type":"uint256","indexed":false,"internalType":"uint256"}],"anonymous":false},{"type":"event","name":"Approval","inputs":[{"name":"owner","type":"address","indexed":true,"internalType":"address"},{"name":"approved","type":"address","indexed":true,"internalType":"address"},{"name":"tokenId","type":"uint256","indexed":true,"internalType":"uint256"}],"anonymous":false},{"type":"event","name":"ApprovalForAll","inputs":[{"name":"owner","type":"address","indexed":true,"internalType":"address"},{"name":"operator","type":"address","indexed":true,"internalType":"address"},{"name":"approved","type":"bool","indexed":false,"internalType":"bool"}],"anonymous":false},{"type":"event","name":"AuthorizedUser","inputs":[{"name":"tokenId","type":"uint256","indexed":true,"internalType":"uint256"},{"name":"user","type":"address","indexed":true,"internalType":"address"}],"anonymous":false},{"type":"event","name":"BatchMetadataUpdate","inputs":[{"name":"_fromTokenId","type":"uint256","indexed":false,"internalType":"uint256"},{"name":"_toTokenId","type":"uint256","indexed":false,"internalType":"uint256"}],"anonymous":false},{"type":"event","name":"INFTMinted","inputs":[{"name":"tokenId","type":"uint256","indexed":true,"internalType":"uint256"},{"name":"owner","type":"address","indexed":true,"internalType":"address"},{"name":"knowledgeHash","type":"string","indexed":false,"internalType":"string"}],"anonymous":false},{"type":"event","name":"KnowledgeAdded","inputs":[{"name":"tokenId","type":"uint256","indexed":true,"internalType":"uint256"},{"name":"knowledgeHash","type":"string","indexed":false,"internalType":"string"}],"anonymous":false},{"type":"event","name":"MetadataUpdate","inputs":[{"name":"tokenId","type":"uint256","indexed":true,"internalType":"uint256"},{"name":"dataHashes","type":"bytes32[]","indexed":false,"internalType":"bytes32[]"}],"anonymous":false},{"type":"event","name":"MetadataUpdate","inputs":[{"name":"_tokenId","type":"uint256","indexed":false,"internalType":"uint256"}],"anonymous":false},{"type":"event","name":"OwnershipTransferred","inputs":[{"name":"previousOwner","type":"address","indexed":true,"internalType":"address"},{"name":"newOwner","type":"address","indexed":true,"internalType":"address"}],"anonymous":false},{"type":"event","name":"Paused","inputs":[{"name":"account","type":"address","indexed":false,"internalType":"address"}],"anonymous":false},{"type":"event","name":"RevokedUser","inputs":[{"name":"tokenId","type":"uint256","indexed":true,"internalType":"uint256"},{"name":"user","type":"address","indexed":true,"internalType":"address"}],"anonymous":false},{"type":"event","name":"Transfer","inputs":[{"name":"from","type":"address","indexed":true,"internalType":"address"},{"name":"to","type":"address","indexed":true,"internalType":"address"},{"name":"tokenId","type":"uint256","indexed":true,"internalType":"uint256"}],"anonymous":false},{"type":"event","name":"Unpaused","inputs":[{"name":"account","type":"address","indexed":false,"internalType":"address"}],"anonymous":false},{"type":"error","name":"ERC721IncorrectOwner","inputs":[{"name":"sender","type":"address","internalType":"address"},{"name":"tokenId","type":"uint256","internalType":"uint256"},{"name":"owner","type":"address","internalType":"address"}]},{"type":"error","name":"ERC721InsufficientApproval","inputs":[{"name":"operator","type":"address","internalType":"address"},{"name":"tokenId","type":"uint256","internalType":"uint256"}]},{"type":"error","name":"ERC721InvalidApprover","inputs":[{"name":"approver","type":"address","internalType":"address"}]},{"type":"error","name":"ERC721InvalidOperator","inputs":[{"name":"operator","type":"address","internalType":"address"}]},{"type":"error","name":"ERC721InvalidOwner","inputs":[{"name":"owner","type":"address","internalType":"address"}]},{"type":"error","name":"ERC721InvalidReceiver","inputs":[{"name":"receiver","type":"address","internalType":"address"}]},{"type":"error","name":"ERC721InvalidSender","inputs":[{"name":"sender","type":"address","internalType":"address"}]},{"type":"error","name":"ERC721NonexistentToken","inputs":[{"name":"tokenId","type":"uint256","internalType":"uint256"}]},{"type":"error","name":"EnforcedPause","inputs":[]},{"type":"error","name":"ExpectedPause","inputs":[]},{"type":"error","name":"OwnableInvalidOwner","inputs":[{"name":"owner","type":"address","internalType":"address"}]},{"type":"error","name":"OwnableUnauthorizedAccount","inputs":[{"name":"account","type":"address","internalType":"address"}]},{"type":"error","name":"ReentrancyGuardReentrantCall","inputs":[]}],"bytecode":{"object":"0x6080346200037a576001600160401b03906040908082018381118282101762000366578252600e81526020916d125b9d195b1b1a599e481253919560921b8383015280519381850185811082821117620003665782526005855264125253919560da1b84860152825181811162000366575f948554916001958684811c941680156200035b575b8385101462000347578190601f94858111620002f4575b5083908583116001146200029157899262000285575b50505f19600383901b1c191690861b1786555b8651928311620002715784548581811c9116801562000266575b8282101462000252578281116200020a575b5080918311600114620001a257508495829394959262000196575b50505f19600383901b1c191690831b1782555b33156200017f5760078054336001600160a01b03198216811790925591519390916001600160a01b0316907f8be0079c531659141344cd1fd0a4f28419497f9722a3daafe3b4186f6b6457e09080a360085561333190816200037f8239f35b51631e4fbdf760e01b815260048101839052602490fd5b015190505f806200010d565b90601f198316968587528287209287905b898210620001f25750508386979896959610620001d9575b505050811b01825562000120565b01515f1960f88460031b161c191690555f8080620001cb565b808885968294968601518155019501930190620001b3565b8587528187208380860160051c82019284871062000248575b0160051c019086905b8281106200023c575050620000f2565b8881550186906200022c565b9250819262000223565b634e487b7160e01b87526022600452602487fd5b90607f1690620000e0565b634e487b7160e01b86526041600452602486fd5b015190505f80620000b3565b898052848a208994509190601f1984168b5b87828210620002dd5750508411620002c4575b505050811b018655620000c6565b01515f1960f88460031b161c191690555f8080620002b6565b8385015186558c97909501949384019301620002a3565b9091508880528389208580850160051c8201928686106200033d575b918a91869594930160051c01915b8281106200032e5750506200009d565b8b81558594508a91016200031e565b9250819262000310565b634e487b7160e01b88526022600452602488fd5b93607f169362000086565b634e487b7160e01b5f52604160045260245ffd5b5f80fdfe6080806040526004361015610012575f80fd5b5f3560e01c90816301ffc9a7146125235750806306fdde0314612483578063081812fc14612446578063095ea7b31461234d578063178c2f5f1461143b57806318160ddd146123305780631a9e69b1146121e95780631b9b507a1461206c57806323b872dd146120555780633d93eec71461200a5780633eddf96d14611fb657806342842e0e14611f8957806342966c6814611b0557806351e904f2146119fd57806356ff1cdf146119bc5780635c975abb1461199a5780635ee7ffff146117c3578063609c6d7f1461173e5780636352211e1461170f57806368b78624146116a85780636ad7158f1461156457806370a08231146114f6578063715018a61461149d5780637c2f7d2e1461143b5780638da5cb5b146114155780639246d05814610cd457806395d89b4114610bf8578063a22cb46514610b36578063a329c71414610a88578063a7da01fc14610a19578063ae01f916146106ae578063b79759721461064d578063b88d4fde146105df578063ba11335014610570578063c815b61d14610443578063c87b56dd146103ed578063d35e05861461032e578063e3356a7a146102c8578063e985e9c5146102755763f2fde38b146101d4575f80fd5b34610271576020366003190112610271576101ed612653565b6101f5612e24565b6001600160a01b0380911690811561024157600754826001600160a01b0319821617600755167f8be0079c531659141344cd1fd0a4f28419497f9722a3daafe3b4186f6b6457e05f80a3005b60246040517f1e4fbdf70000000000000000000000000000000000000000000000000000000081525f6004820152fd5b5f80fd5b346102715760403660031901126102715761028e612653565b610296612669565b906001600160a01b038091165f52600560205260405f2091165f52602052602060ff60405f2054166040519015158152f35b34610271576040366003190112610271576024356004355f52600c60205260405f20908154811015610271576102fd916129bf565b50610307816127ee565b61032a60018301549260ff6003600283015492015416906040519485948561288f565b0390f35b34610271576020806003193601126102715760043590815f52600281526001600160a01b03916103658360405f2054161515612cb5565b5f526011815260405f20604051918281835491828152019081935f52825f20905f5b8181106103d7575050508361039d9103846126ef565b6040519281840190828552518091526040840192915f5b8281106103c15785850386f35b83518716855293810193928101926001016103b4565b8254881684529284019260019283019201610387565b346102715760203660031901126102715760043561040a81613177565b505f52600660205261032a61042160405f206127ee565b5f60405161042e816126b7565b5260405191829160208352602083019061262e565b34610271577faaf8dbe2b88ba72af81e9719231f327359ebabb74fdfb0b0416c2076103df7136104723661298f565b61047d829392613177565b6001600160a01b03919082163314801561054b575b61049b90612c6a565b835f526104b56020926002845260405f2054161515612cb5565b835f52600b82526104cf60ff600460405f20015416612d00565b835f52600b8252600260405f20016104e78154612a6e565b9055835f52600b825242600360405f200155837f8b1c2d805c37ebaa3454275243e164eb366ea9fbe1b9a771a82eb7826a6635896040518481528061053033958783019061262e565b0390a3825f52600b8152600260405f200154604051908152a2005b50835f52601060205260405f20335f5260205261049b60ff60405f2054169050610492565b34610271576105cb6105813661298f565b6105ba61058f839493613177565b6105a56001600160a01b03918233911614612d85565b845f52600260205260405f2054161515612cb5565b825f52600b60205260405f20612ab3565b5f52600b60205242600360405f2001555f80f35b34610271576080366003190112610271576105f8612653565b610600612669565b906044356064359267ffffffffffffffff841161027157366023850112156102715761063961064b94369060248160040135910161272d565b92610645838383612e68565b336131b0565b005b3461027157602036600319011261027157600435805f5260026020526106816001600160a01b0360405f2054161515612cb5565b5f52600b60205261032a61069a600160405f2001612dd0565b6040519182916020835260208301906128e2565b3461027157600319606036820112610271576004359060249067ffffffffffffffff908235828111610271576106e8903690600401612763565b9160443591818311610271576080908336030112610271576040519061070d8261267f565b8260040135908111610271576107299060043691850101612763565b815260209384820181840135815260646040840194604481013586520135928315158403610271576060810193845261079561076489613177565b6001600160a01b03908116331480156109fb575b61078190612c6a565b895f526002895260405f2054161515612cb5565b6107a1865115156129d8565b604051936107d060ff8851968a81818c01996107be81838d61260d565b8101600e815203019020541615612a23565b885f52600b88526107ea60ff600460405f20015416612d00565b885f52600b88526001958660405f20019384546801000000000000000095868210156109e8579061081f918a820181556128b9565b6109d6578961082d91612ab3565b8a5f52600b8a5242600360405f200155600c8a5260405f20805490868210156109e8579061085f918a820181556129bf565b9490946109d6579161089b94939161087a6003945186612ab3565b518985015551600284015551151591019060ff801983541691151516179055565b604051868101906108c1888289516108b481878b61260d565b81010380845201826126ef565b51902091875f52600f875260405f20908154928310156109c4575093610976877ffd5e5a7cf0d8f7f9d7913423013b2631ed077c79dec6f082b95fe336f35112ad9561099c9561095361093d878e9b887f7c11262c02c9b4cb7d2da32ecb97a6ceb55da913d762dcf5c95dabbe032e3cc99f9e9a0181556128b9565b819391549060031b91821b915f19901b19161790565b9055875f52600f825242600260405f20015560405180938192875192839161260d565b8101600e8152030190209060ff198254161790556040519182918683528683019061262e565b0390a2825f52600f815260405f20906109bf604051928284938452830190612d4b565b0390a2005b634e487b7160e01b5f5260416004525ffd5b86634e487b7160e01b5f525f6004525ffd5b87634e487b7160e01b5f5260416004525ffd5b505f8a815260108a5260408082203383528b5290205460ff16610778565b3461027157602036600319011261027157600435610a64610a3982613177565b610a4f6001600160a01b03918233911614612d85565b825f52600260205260405f2054161515612cb5565b5f52600b60205260405f2060048101600160ff198254161790556003429101555f80f35b3461027157602080600319360112610271576001600160a01b03610aaa612653565b165f52600d815260405f20604051908183825491828152019081925f52845f20905f5b86828210610b22578686610ae3828803836126ef565b60405192839281840190828552518091526040840192915f5b828110610b0b57505050500390f35b835185528695509381019392810192600101610afc565b835485529093019260019283019201610acd565b3461027157604036600319011261027157610b4f612653565b6024359081151590818303610271576001600160a01b0316918215610bc757610b9990335f52600560205260405f20845f5260205260405f209060ff801983541691151516179055565b6040519081527f17307eab39ab6107e8899845ad3d59bd9653f200f220920489ca2b5937696c3160203392a3005b602483604051907f5b08ba180000000000000000000000000000000000000000000000000000000082526004820152fd5b34610271575f366003190112610271576040515f6001805490610c1a826127b6565b80855291818116908115610cad5750600114610c55575b61032a84610c41818603826126ef565b60405191829160208352602083019061262e565b5f81815292507fb10e2d527612073b26eecdfd717e6a320cf44b4afac2b0732d9fcbe2b7fa0cf65b828410610c95575050508101602001610c4182610c31565b80546020858701810191909152909301928101610c7d565b60ff191660208087019190915292151560051b85019092019250610c419150839050610c31565b3461027157608036600319011261027157610ced612653565b60243567ffffffffffffffff811161027157610d0d903690600401612763565b9060443567ffffffffffffffff811161027157610d2e903690600401612763565b9060643567ffffffffffffffff811161027157610d4f903690600401612763565b91610d58612e24565b610d64815115156129d8565b610d7e60ff60405160208185516107be8183858a0161260d565b600a5492610d8b84612a6e565b600a5560405190610d9b826126b7565b5f82526001600160a01b0391828516156113fe57855f5260026020528260405f205416806113c7575b8386165f52600360205260405f2060018154019055865f52600260205260405f208487166001600160a01b031982541617905586848716827fddf252ad1be2c89b69c2b068fc378daa952ba7f163c4a11628f55a4df523b3ef5f80a4801515816113bf575b6112cd575b61129d57843b611172575b50845f526006602052610e4f8660405f20612ab3565b7ff8e1a15aba9398e019f0b49df1a4fde98ee17ae345cb5f6b5e2c27f5033e8ce76020604051878152a160405190610e86826126d3565b600182525f5b60208110611161575083610e9f83612a7c565b52610ea982612a7c565b5060405190610eb78261269b565b8152602081019182525f604082015242606082015260016080820152855f52600b60205260405f2091610eeb825184612ab3565b518051906801000000000000000082116110ff576001840154826001860155808310611130575b50602001600184015f5260205f205f915b83831061111357505050509060046080836040610f629501516002850155606081015160038501550151151591019060ff801983541691151516179055565b60405192610f6f846126d3565b60018452602036818601376040516020810190610f9760208287516108b48187858c0161260d565b519020610fa385612a7c565b526040516060810181811067ffffffffffffffff8211176110ff576040528481526020810196875260408101428152865f52600f60205260405f2091519788519867ffffffffffffffff8a116110ff576020906110008b86612bf8565b0198835f5260205f20995f905b8282106110eb57505050967fa0aaa011c7e3f382a52d0fd58bc5cc80ce5c38969a1c2c1a628872a3f6b2b6217f7c11262c02c9b4cb7d2da32ecb97a6ceb55da913d762dcf5c95dabbe032e3cc9956110e0958399956002859a9661107760209e5160018501612ab3565b519101556040518b81875161108f8183858c0161260d565b8101600e815203019020600160ff198254161790558181165f52600d8b526110ba8460405f20612c3f565b6110d16040519283928d845216958c83019061262e565b0390a36040519182918261293d565b0390a2604051908152f35b80518c83015560019091019060200161100d565b634e487b7160e01b5f52604160045260245ffd5b600160208261112483945186612ab3565b01920192019190610f23565b600185015f5260205f20908382015b818301811061114f575050610f12565b8061115b600192612bb0565b0161113f565b806060602080938601015201610e8c565b604096949593929651602081806111b1630a85bd0160e11b958683523360048401525f602484015289604484015260806064840152608483019061262e565b03815f8c8c165af15f9181611258575b506112225787873d1561121a573d916111d983612711565b926111e760405194856126ef565b83523d5f602085013e5b82519283611213576024838360405191633250574960e11b8352166004820152fd5b6020849101fd5b6060916111f1565b6001600160e01b031990979394969597160361123e5786610e39565b6024848360405191633250574960e11b8352166004820152fd5b9091506020813d602011611295575b81611274602093836126ef565b8101031261027157516001600160e01b0319811681036102715790896111c1565b3d9150611267565b60246040517f73c6ac6e0000000000000000000000000000000000000000000000000000000081525f6004820152fd5b959493929190865f52600d60205260405f20965f5b8854808210156113b057886112f7838c6128b9565b90549060031b1c14611312575061130d90612a6e565b6112e2565b5f99929394959697989919810190811161139c5761093d61133661134492856128b9565b90549060031b1c92846128b9565b905580548015611388575f19019061135c82826128b9565b8154905f199060031b1b19169055555b8386165f52600d6020526113838760405f20612c3f565b610e2e565b634e487b7160e01b5f52603160045260245ffd5b634e487b7160e01b5f52601160045260245ffd5b5050909192939495965061136c565b506001610e29565b6113e6875f52600460205260405f206001600160a01b03198154169055565b805f52600360205260405f205f198154019055610dc4565b6024604051633250574960e11b81525f6004820152fd5b34610271575f3660031901126102715760206001600160a01b0360075416604051908152f35b346102715760203660031901126102715760043567ffffffffffffffff81116102715760ff611487602061147481943690600401612763565b816040519382858094519384920161260d565b8101600e81520301902054166040519015158152f35b34610271575f366003190112610271576114b5612e24565b5f6001600160a01b036007546001600160a01b03198116600755167f8be0079c531659141344cd1fd0a4f28419497f9722a3daafe3b4186f6b6457e08280a3005b34610271576020366003190112610271576001600160a01b03611517612653565b168015611534575f526003602052602060405f2054604051908152f35b60246040517f89c62b640000000000000000000000000000000000000000000000000000000081525f6004820152fd5b346102715760403660031901126102715760043567ffffffffffffffff6024358181116102715736602382011215610271578060040135916115a583612977565b926115b360405194856126ef565b8084526020928385016024819360051b83010191368311610271576024869101915b83831061169857505050506116166115ec86613177565b6116026001600160a01b03918233911614612d85565b865f526002855260405f2054161515612cb5565b845f52600f835260405f209084519283116110ff576116358383612bf8565b905f52825f205f5b83811061168657867f7c11262c02c9b4cb7d2da32ecb97a6ceb55da913d762dcf5c95dabbe032e3cc96109bf88600f89855f525242600260405f2001556040519182918261293d565b8251828201559184019160010161163d565b82358152918101918691016115d5565b3461027157602036600319011261027157600435805f5260026020526116dc6001600160a01b0360405f2054161515612cb5565b5f52600f60205261032a6116fc61170360405f2060405192838092612d4b565b03826126ef565b6040519182918261293d565b3461027157602036600319011261027157602061172d600435613177565b6001600160a01b0360405191168152f35b3461027157604036600319011261027157602060043561175c612669565b815f52600283526001600160a01b0361177c8160405f2054161515612cb5565b825f52601084528060405f20921691825f52845260ff60405f2054169283156117ad575b5050506040519015158152f35b6117b991929350613177565b16148280806117a0565b34610271576040366003190112610271576004356117df612669565b906117e981613177565b906118006001600160a01b03928333911614612d85565b805f526020916002835261181b8160405f2054161515612cb5565b815f52601083528060405f20941693845f52835260ff60405f2054161561195657815f526010835260405f20845f52835260405f2060ff198154169055815f52601180935260405f205f5b81548082101561194b5783908761187d84866128b9565b939054600394851b1c161461189c57505061189790612a6e565b611866565b949590949293925f1992918184019182116119395750906118d2846118c46118f294886128b9565b905490891b1c1691866128b9565b90919082549060031b916001600160a01b03809116831b921b1916179055565b8254801561138857019261190684846128b9565b81939154921b1b19169055555b7f935df0251133d272e3ac5f8fd9287fd1ac4ba878583def9e5ca77bdb2600271c5f80a3005b634e487b7160e01b5f5260045260245ffd5b505050509050611913565b6064836040519062461bcd60e51b82526004820152601360248201527f55736572206e6f7420617574686f72697a6564000000000000000000000000006044820152fd5b34610271575f36600319011261027157602060ff600954166040519015158152f35b34610271576020366003190112610271576004356119dc610a3982613177565b5f52600b60205260405f206004810160ff1981541690556003429101555f80f35b34610271576020806003193601126102715760a0906004355f6080604051611a248161269b565b606081526060858201528260408201528260608201520152805f5260028252611a5b6001600160a01b0360405f2054161515612cb5565b5f52600b815260405f2060405191611a728361269b565b611a7b826127ee565b8352611a8960018301612dd0565b91818401928352611aec60028201549360408601948552611ad960ff600460038601549560608a0196875201541694608088019515158652604051988998828a52519189015260c088019061262e565b9051868203601f190160408801526128e2565b9251606085015251608084015251151560a08301520390f35b346102715760208060031936011261027157600435805f5260028083526001600160a01b0390611b3d838360405f20541633906130f5565b15611f4557825f52600b84526001928392611b5c8460405f2001612dd0565b92825f528087528160405f205416801590811580611f0f575b855f52838a5260405f206001600160a01b03198154169055855f837fddf252ad1be2c89b69c2b068fc378daa952ba7f163c4a11628f55a4df523b3ef8280a480611f08575b611e2f575b50909192939450611e1757825f52600b865260405f20611bde81612bb0565b8581018054905f815581611dee575b50505f828201555f600460039282848201550155835f52600c875260405f20908154915f815582611d90575b505050825f52600f865260405f2080545f825580611d6b575b5085929181611c43855f9401612bb0565b0155825f526011865260405f209060405191828882549182815201915f52885f20905f5b8a828210611d56575050505082611c7f9103836126ef565b5f835b611d11575b505050505f526011835260405f2080545f825580611cf8575b5050815f905b611cac57005b815181101561064b5780611cdb85611cc7611cf29486612a89565b51816040519382858094519384920161260d565b8101600e81520301902060ff198154169055612a6e565b82611ca6565b611d0a915f52845f2090810190612a9d565b8380611ca0565b8251811015611d5157611d4b90855f526010895260405f2083611d348387612a89565b51165f52895260405f2060ff198154169055612a6e565b83611c82565b611c87565b8354861685528a979401939283019201611c67565b815f5286885f20918201915b828110611d85575050611c32565b5f8155018790611d77565b7f3fffffffffffffffffffffffffffffffffffffffffffffffffffffffffffffff8316830361139c575f52875f2091831b8201915b82811015611c195780611dd9600492612bb0565b5f898201555f858201555f8382015501611dc5565b5f5286885f20918201915b828110611e065750611bed565b611e0f81612bb0565b018790611df9565b60248360405190637e27328960e01b82526004820152fd5b5f52600d885260405f20865f905b611e6a575b50509091929394505f8052600d8752611e5e8460405f20612c3f565b90859493929188611bbf565b815480821015611f02578690611e8083856128b9565b929054600393841b1c14611e9f575050611e9990612a6e565b87611e3d565b9190939495969798505f199182810190811161139c5761093d611ec5611ed292866128b9565b905490871b1c92856128b9565b90558154801561138857810192611ee984846128b9565b81939154921b1b19169055559085949392918880611e42565b50611e42565b505f611bba565b611f2e865f52600460205260405f206001600160a01b03198154169055565b815f5260038a5260405f205f198154019055611b75565b6064846040519062461bcd60e51b82526004820152601660248201527f4e6f7420617574686f72697a656420746f206275726e000000000000000000006044820152fd5b346102715761064b611f9a36612781565b9060405192611fa8846126b7565b5f8452610645838383612e68565b3461027157604036600319011261027157611fcf612653565b6001600160a01b0360243591165f52600d60205260405f20805482101561027157602091611ffc916128b9565b90546040519160031b1c8152f35b34610271576020366003190112610271576004355f52600b60205260405f20612032816127ee565b61032a60028301549260ff6004600383015492015416906040519485948561288f565b346102715761064b61206636612781565b91612e68565b3461027157604036600319011261027157600435612088612669565b9061209281613177565b916120a96001600160a01b03938433911614612d85565b815f52602092600284526120c48160405f2054161515612cb5565b81169283156121a557825f526010815260405f20845f52815260ff60405f20541661216157601190835f526010815260405f20855f52815260405f20600160ff19825416179055835f525260405f2090815491680100000000000000008310156110ff57826118d291600161213b950181556128b9565b7f6297f7a1c3dc37c05e97d86a1c89e62b1355fc805a3d6a4205fc191a04cd60f45f80a3005b6064906040519062461bcd60e51b82526004820152601760248201527f5573657220616c726561647920617574686f72697a65640000000000000000006044820152fd5b6064906040519062461bcd60e51b82526004820152601460248201527f496e76616c6964207573657220616464726573730000000000000000000000006044820152fd5b34610271576020806003193601126102715760043590815f526002918282526122206001600160a01b0360405f2054161515612cb5565b5f52600c815260405f20805461223581612977565b9361224360405195866126ef565b8185525f9283528383208486019391845b8484106122df57604080518881528951818a018190525f92600582901b83018101918a918c9085015b82871061228a5785850386f35b909192938280600192603f198982030185528751906122b18251608080845283019061262e565b918381015184830152604081015160408301526060809101511515910152960192019601959291909261227d565b60048760019260409a999a516122f48161267f565b6122fd876127ee565b8152848701548382015285870154604082015260ff60038801541615156060820152815201930193019291969596612254565b34610271575f366003190112610271576020600a54604051908152f35b3461027157604036600319011261027157612366612653565b60243561237281613177565b33151580612433575b80612409575b6123d95781906001600160a01b03809416938491167f8c5be1e5ebec7d5bd14f71427d1e84f3dd0314c0f7b2291e5b200ac8c7c3b9255f80a45f52600460205260405f20906001600160a01b03198254161790555f80f35b60246040517fa9fbf51f000000000000000000000000000000000000000000000000000000008152336004820152fd5b506001600160a01b0381165f52600560205260405f20335f5260205260ff60405f20541615612381565b50336001600160a01b038216141561237b565b346102715760203660031901126102715760043561246381613177565b505f52600460205260206001600160a01b0360405f205416604051908152f35b34610271575f366003190112610271576040515f80546124a2816127b6565b80845290600190818116908115610cad57506001146124cb5761032a84610c41818603826126ef565b5f80805292507f290decd9548b62a8d60345a988386fc84ba6bc95484008f6362f93160ef3e5635b82841061250b575050508101602001610c4182610c31565b805460208587018101919091529093019281016124f3565b3461027157602036600319011261027157600435906001600160e01b0319821680920361027157817f49064906000000000000000000000000000000000000000000000000000000006020931490811561257f575b5015158152f35b7f80ac58cd000000000000000000000000000000000000000000000000000000008114915081156125e3575b81156125b9575b5083612578565b7f01ffc9a700000000000000000000000000000000000000000000000000000000915014836125b2565b7f5b5e139f00000000000000000000000000000000000000000000000000000000811491506125ab565b5f5b83811061261e5750505f910152565b818101518382015260200161260f565b906020916126478151809281855285808601910161260d565b601f01601f1916010190565b600435906001600160a01b038216820361027157565b602435906001600160a01b038216820361027157565b6080810190811067ffffffffffffffff8211176110ff57604052565b60a0810190811067ffffffffffffffff8211176110ff57604052565b6020810190811067ffffffffffffffff8211176110ff57604052565b6040810190811067ffffffffffffffff8211176110ff57604052565b90601f8019910116810190811067ffffffffffffffff8211176110ff57604052565b67ffffffffffffffff81116110ff57601f01601f191660200190565b92919261273982612711565b9161274760405193846126ef565b829481845281830111610271578281602093845f960137010152565b9080601f830112156102715781602061277e9335910161272d565b90565b6060906003190112610271576001600160a01b0390600435828116810361027157916024359081168103610271579060443590565b90600182811c921680156127e4575b60208310146127d057565b634e487b7160e01b5f52602260045260245ffd5b91607f16916127c5565b9060405191825f825492612801846127b6565b9081845260019485811690815f1461286c575060011461282c575b505061282a925003836126ef565b565b909391505f52602090815f20935f915b81831061285457505061282a93508201015f8061281c565b8554888401850152948501948794509183019161283c565b91505061282a94506020925060ff191682840152151560051b8201015f8061281c565b926128a760609396959260808652608086019061262e565b95602085015260408401521515910152565b80548210156128ce575f5260205f2001905f90565b634e487b7160e01b5f52603260045260245ffd5b908082519081815260208091019281808460051b8301019501935f915b84831061290f5750505050505090565b909192939495848061292d600193601f198682030187528a5161262e565b98019301930191949392906128ff565b602090816040818301928281528551809452019301915f5b828110612963575050505090565b835185529381019392810192600101612955565b67ffffffffffffffff81116110ff5760051b60200190565b90604060031983011261027157600435916024359067ffffffffffffffff82116102715761277e91600401612763565b80548210156128ce575f5260205f209060021b01905f90565b156129df57565b606460405162461bcd60e51b815260206004820152601760248201527f4b6e6f776c6564676520686173682072657175697265640000000000000000006044820152fd5b15612a2a57565b606460405162461bcd60e51b815260206004820152601b60248201527f4b6e6f776c65646765206861736820616c7265616479207573656400000000006044820152fd5b5f19811461139c5760010190565b8051156128ce5760200190565b80518210156128ce5760209160051b010190565b818110612aa8575050565b5f8155600101612a9d565b919091825167ffffffffffffffff81116110ff57612ad182546127b6565b601f8111612b75575b50602080601f8311600114612b155750819293945f92612b0a575b50508160011b915f199060031b1c1916179055565b015190505f80612af5565b90601f19831695845f52825f20925f905b888210612b5d57505083600195969710612b45575b505050811b019055565b01515f1960f88460031b161c191690555f8080612b3b565b80600185968294968601518155019501930190612b26565b612ba090835f5260205f20601f840160051c81019160208510612ba6575b601f0160051c0190612a9d565b5f612ada565b9091508190612b93565b612bba81546127b6565b9081612bc4575050565b81601f5f9311600114612bd5575055565b908083918252612bf4601f60208420940160051c840160018501612a9d565b5555565b6801000000000000000082116110ff57805491808255828110612c1a57505050565b5f9182526020822092830192015b828110612c3457505050565b818155600101612c28565b805490680100000000000000008210156110ff578161093d916001612c66940181556128b9565b9055565b15612c7157565b606460405162461bcd60e51b815260206004820152600e60248201527f4e6f7420617574686f72697a65640000000000000000000000000000000000006044820152fd5b15612cbc57565b606460405162461bcd60e51b815260206004820152601460248201527f546f6b656e20646f6573206e6f742065786973740000000000000000000000006044820152fd5b15612d0757565b606460405162461bcd60e51b815260206004820152601660248201527f4149207374617465206973206e6f7420616374697665000000000000000000006044820152fd5b9081548082526020809201925f52815f20915f905b828210612d6e575050505090565b835485529384019360019384019390910190612d60565b15612d8c57565b606460405162461bcd60e51b815260206004820152600f60248201527f4e6f7420746f6b656e206f776e657200000000000000000000000000000000006044820152fd5b908154612ddc81612977565b92612dea60405194856126ef565b8184525f90815260208082208186015b848410612e08575050505050565b6001838192612e16856127ee565b815201920193019290612dfa565b6001600160a01b03600754163303612e3857565b60246040517f118cdaa7000000000000000000000000000000000000000000000000000000008152336004820152fd5b6001600160a01b038092169283156113fe575f92818452602092600284526040948286822054169433613094575b851515978861305f575b80835260038083528884209960019a8b815401905587855260028452898520836001600160a01b031982541617905587838a7fddf252ad1be2c89b69c2b068fc378daa952ba7f163c4a11628f55a4df523b3ef8880a480613058575b612f54575b505050509091929394501692838303612f1a5750505050565b6064945051927f64283d7b000000000000000000000000000000000000000000000000000000008452600484015260248301526044820152fd5b878452600d8352888420848b5b612f91575b50505087985091600d86979892612f839596979483525220612c3f565b90849392915f808080612f01565b8154808210156130525789612fa683856128b9565b905490861b1c14612fc15750612fbb90612a6e565b8b612f61565b9192939495969798999a9b505f199182810190811161303e5761093d611ec5612fea92866128b9565b90558154801561302a5793612f839693600d93838c98948f98019261300f84846128b9565b81939154921b1b1916905555929497969581949a9950612f66565b602487634e487b7160e01b81526031600452fd5b602488634e487b7160e01b81526011600452fd5b50612f66565b5089612efc565b61307e865f52600460205260405f206001600160a01b03198154169055565b8683526003825287832080545f19019055612ea0565b61309f8533886130f5565b612e96578685876130c0576024915190637e27328960e01b82526004820152fd5b60449151907f177e802f0000000000000000000000000000000000000000000000000000000082523360048301526024820152fd5b91906001600160a01b03809116908115159384613114575b5050505090565b81929394501692828414938415613154575b50831561313a575b5050505f80808061310d565b909192505f52600460205260405f205416145f808061312e565b9093505f52600560205260405f20825f5260205260ff60405f205416925f613126565b805f5260026020526001600160a01b0360405f205416908115613198575090565b60249060405190637e27328960e01b82526004820152fd5b90939192833b6131c2575b5050505050565b6001600160a01b039592939495809516946040519681630a85bd0160e11b94858a521660048901521660248701526044860152608060648601528461320d602094608483019061262e565b039483815f978189895af18691816132b7575b5061327f575050503d5f14613276573d61323981612711565b9061324760405192836126ef565b81528093823d92013e5b825192836132715760248360405190633250574960e11b82526004820152fd5b019050fd5b60609250613251565b9092506001600160e01b0319919450160361329f57505f808080806131bb565b60249060405190633250574960e11b82526004820152fd5b9091508481813d83116132f4575b6132cf81836126ef565b810103126132f057516001600160e01b0319811681036132f057905f613220565b8680fd5b503d6132c556fea2646970667358221220c868020fa41d8418699dbfd7bddffc95cafbb42eb9b71df2d4b0a6565698ac5264736f6c63430008140033","linkReferences":{}},"methodIdentifiers":{"addKnowledge(uint256,string,(string,uint256,uint256,bool))":"ae01f916","aiStates(uint256)":"3d93eec7","approve(address,uint256)":"095ea7b3","authorizeUser(uint256,address)":"1b9b507a","balanceOf(address)":"70a08231","burn(uint256)":"42966c68","deactivateINFT(uint256)":"56ff1cdf","getAIState(uint256)":"51e904f2","getApproved(uint256)":"081812fc","getAuthorizedUsers(uint256)":"d35e0586","getDataHashes(uint256)":"68b78624","getKnowledgeHashes(uint256)":"b7975972","getKnowledgeMetadata(uint256)":"1a9e69b1","getUserINFTs(address)":"a329c714","isApprovedForAll(address,address)":"e985e9c5","isAuthorized(uint256,address)":"609c6d7f","isKnowledgeHashUsed(string)":"7c2f7d2e","knowledgeMetadata(uint256,uint256)":"e3356a7a","mintINFT(address,string,string,string)":"9246d058","name()":"06fdde03","owner()":"8da5cb5b","ownerOf(uint256)":"6352211e","paused()":"5c975abb","reactivateINFT(uint256)":"a7da01fc","recordInteraction(uint256,string)":"c815b61d","renounceOwnership()":"715018a6","revokeUser(uint256,address)":"5ee7ffff","safeTransferFrom(address,address,uint256)":"42842e0e","safeTransferFrom(address,address,uint256,bytes)":"b88d4fde","setApprovalForAll(address,bool)":"a22cb465","supportsInterface(bytes4)":"01ffc9a7","symbol()":"95d89b41","tokenURI(uint256)":"c87b56dd","totalSupply()":"18160ddd","transferFrom(address,address,uint256)":"23b872dd","transferOwnership(address)":"f2fde38b","updateMetadata(uint256,bytes32[])":"6ad7158f","updateModelVersion(uint256,string)":"ba113350","usedKnowledgeHashes(string)":"178c2f5f","userINFTs(address,uint256)":"3eddf96d"},"id":0}