{"abi":[{"type":"constructor","inputs":[],"stateMutability":"nonpayable"},{"type":"function","name":"addKnowledge","inputs":[{"name":"tokenId","type":"uint256","internalType":"uint256"},{"name":"knowledgeHash","type":"string","internalType":"string"},{"name":"metadata","type":"tuple","internalType":"struct IntellifyINFT.KnowledgeMetadata","components":[{"name":"contentType","type":"string","internalType":"string"},{"name":"fileSize","type":"uint256","internalType":"uint256"},{"name":"encryptionKey","type":"string","internalType":"string"},{"name":"uploadTimestamp","type":"uint256","internalType":"uint256"},{"name":"isEncrypted","type":"bool","internalType":"bool"}]}],"outputs":[],"stateMutability":"nonpayable"},{"type":"function","name":"aiStates","inputs":[{"name":"","type":"uint256","internalType":"uint256"}],"outputs":[{"name":"modelVersion","type":"string","internalType":"string"},{"name":"interactionCount","type":"uint256","internalType":"uint256"},{"name":"lastUpdated","type":"uint256","internalType":"uint256"},{"name":"isActive","type":"bool","internalType":"bool"},{"name":"owner","type":"address","internalType":"address"}],"stateMutability":"view"},{"type":"function","name":"approve","inputs":[{"name":"to","type":"address","internalType":"address"},{"name":"tokenId","type":"uint256","internalType":"uint256"}],"outputs":[],"stateMutability":"nonpayable"},{"type":"function","name":"balanceOf","inputs":[{"name":"owner","type":"address","internalType":"address"}],"outputs":[{"name":"","type":"uint256","internalType":"uint256"}],"stateMutability":"view"},{"type":"function","name":"burn","inputs":[{"name":"tokenId","type":"uint256","internalType":"uint256"}],"outputs":[],"stateMutability":"nonpayable"},{"type":"function","name":"deactivateINFT","inputs":[{"name":"tokenId","type":"uint256","internalType":"uint256"}],"outputs":[],"stateMutability":"nonpayable"},{"type":"function","name":"getAIState","inputs":[{"name":"tokenId","type":"uint256","internalType":"uint256"}],"outputs":[{"name":"","type":"tuple","internalType":"struct IntellifyINFT.AIState","components":[{"name":"modelVersion","type":"string","internalType":"string"},{"name":"knowledgeHashes","type":"string[]","internalType":"string[]"},{"name":"interactionCount","type":"uint256","internalType":"uint256"},{"name":"lastUpdated","type":"uint256","internalType":"uint256"},{"name":"isActive","type":"bool","internalType":"bool"},{"name":"owner","type":"address","internalType":"address"}]}],"stateMutability":"view"},{"type":"function","name":"getApproved","inputs":[{"name":"tokenId","type":"uint256","internalType":"uint256"}],"outputs":[{"name":"","type":"address","internalType":"address"}],"stateMutability":"view"},{"type":"function","name":"getKnowledgeHashes","inputs":[{"name":"tokenId","type":"uint256","internalType":"uint256"}],"outputs":[{"name":"","type":"string[]","internalType":"string[]"}],"stateMutability":"view"},{"type":"function","name":"getKnowledgeMetadata","inputs":[{"name":"tokenId","type":"uint256","internalType":"uint256"}],"outputs":[{"name":"","type":"tuple[]","internalType":"struct IntellifyINFT.KnowledgeMetadata[]","components":[{"name":"contentType","type":"string","internalType":"string"},{"name":"fileSize","type":"uint256","internalType":"uint256"},{"name":"encryptionKey","type":"string","internalType":"string"},{"name":"uploadTimestamp","type":"uint256","internalType":"uint256"},{"name":"isEncrypted","type":"bool","internalType":"bool"}]}],"stateMutability":"view"},{"type":"function","name":"getUserINFTs","inputs":[{"name":"user","type":"address","internalType":"address"}],"outputs":[{"name":"","type":"uint256[]","internalType":"uint256[]"}],"stateMutability":"view"},{"type":"function","name":"isApprovedForAll","inputs":[{"name":"owner","type":"address","internalType":"address"},{"name":"operator","type":"address","internalType":"address"}],"outputs":[{"name":"","type":"bool","internalType":"bool"}],"stateMutability":"view"},{"type":"function","name":"isKnowledgeHashUsed","inputs":[{"name":"knowledgeHash","type":"string","internalType":"string"}],"outputs":[{"name":"","type":"bool","internalType":"bool"}],"stateMutability":"view"},{"type":"function","name":"knowledgeMetadata","inputs":[{"name":"","type":"uint256","internalType":"uint256"},{"name":"","type":"uint256","internalType":"uint256"}],"outputs":[{"name":"contentType","type":"string","internalType":"string"},{"name":"fileSize","type":"uint256","internalType":"uint256"},{"name":"encryptionKey","type":"string","internalType":"string"},{"name":"uploadTimestamp","type":"uint256","internalType":"uint256"},{"name":"isEncrypted","type":"bool","internalType":"bool"}],"stateMutability":"view"},{"type":"function","name":"mintINFT","inputs":[{"name":"to","type":"address","internalType":"address"},{"name":"metadataURI","type":"string","internalType":"string"},{"name":"knowledgeHash","type":"string","internalType":"string"},{"name":"modelVersion","type":"string","internalType":"string"}],"outputs":[{"name":"","type":"uint256","internalType":"uint256"}],"stateMutability":"nonpayable"},{"type":"function","name":"name","inputs":[],"outputs":[{"name":"","type":"string","internalType":"string"}],"stateMutability":"view"},{"type":"function","name":"owner","inputs":[],"outputs":[{"name":"","type":"address","internalType":"address"}],"stateMutability":"view"},{"type":"function","name":"ownerOf","inputs":[{"name":"tokenId","type":"uint256","internalType":"uint256"}],"outputs":[{"name":"","type":"address","internalType":"address"}],"stateMutability":"view"},{"type":"function","name":"reactivateINFT","inputs":[{"name":"tokenId","type":"uint256","internalType":"uint256"}],"outputs":[],"stateMutability":"nonpayable"},{"type":"function","name":"recordInteraction","inputs":[{"name":"tokenId","type":"uint256","internalType":"uint256"},{"name":"interactionType","type":"string","internalType":"string"}],"outputs":[],"stateMutability":"nonpayable"},{"type":"function","name":"renounceOwnership","inputs":[],"outputs":[],"stateMutability":"nonpayable"},{"type":"function","name":"safeTransferFrom","inputs":[{"name":"from","type":"address","internalType":"address"},{"name":"to","type":"address","internalType":"address"},{"name":"tokenId","type":"uint256","internalType":"uint256"}],"outputs":[],"stateMutability":"nonpayable"},{"type":"function","name":"safeTransferFrom","inputs":[{"name":"from","type":"address","internalType":"address"},{"name":"to","type":"address","internalType":"address"},{"name":"tokenId","type":"uint256","internalType":"uint256"},{"name":"data","type":"bytes","internalType":"bytes"}],"outputs":[],"stateMutability":"nonpayable"},{"type":"function","name":"setApprovalForAll","inputs":[{"name":"operator","type":"address","internalType":"address"},{"name":"approved","type":"bool","internalType":"bool"}],"outputs":[],"stateMutability":"nonpayable"},{"type":"function","name":"supportsInterface","inputs":[{"name":"interfaceId","type":"bytes4","internalType":"bytes4"}],"outputs":[{"name":"","type":"bool","internalType":"bool"}],"stateMutability":"view"},{"type":"function","name":"symbol","inputs":[],"outputs":[{"name":"","type":"string","internalType":"string"}],"stateMutability":"view"},{"type":"function","name":"tokenURI","inputs":[{"name":"tokenId","type":"uint256","internalType":"uint256"}],"outputs":[{"name":"","type":"string","internalType":"string"}],"stateMutability":"view"},{"type":"function","name":"totalSupply","inputs":[],"outputs":[{"name":"","type":"uint256","internalType":"uint256"}],"stateMutability":"view"},{"type":"function","name":"transferFrom","inputs":[{"name":"from","type":"address","internalType":"address"},{"name":"to","type":"address","internalType":"address"},{"name":"tokenId","type":"uint256","internalType":"uint256"}],"outputs":[],"stateMutability":"nonpayable"},{"type":"function","name":"transferOwnership","inputs":[{"name":"newOwner","type":"address","internalType":"address"}],"outputs":[],"stateMutability":"nonpayable"},{"type":"function","name":"updateModelVersion","inputs":[{"name":"tokenId","type":"uint256","internalType":"uint256"},{"name":"newModelVersion","type":"string","internalType":"string"}],"outputs":[],"stateMutability":"nonpayable"},{"type":"function","name":"usedKnowledgeHashes","inputs":[{"name":"","type":"string","internalType":"string"}],"outputs":[{"name":"","type":"bool","internalType":"bool"}],"stateMutability":"view"},{"type":"function","name":"userINFTs","inputs":[{"name":"","type":"address","internalType":"address"},{"name":"","type":"uint256","internalType":"uint256"}],"outputs":[{"name":"","type":"uint256","internalType":"uint256"}],"stateMutability":"view"},{"type":"event","name":"AIInteraction","inputs":[{"name":"tokenId","type":"uint256","indexed":true,"internalType":"uint256"},{"name":"user","type":"address","indexed":true,"internalType":"address"},{"name":"interactionType","type":"string","indexed":false,"internalType":"string"}],"anonymous":false},{"type":"event","name":"AIStateUpdated","inputs":[{"name":"tokenId","type":"uint256","indexed":true,"internalType":"uint256"},{"name":"interactionCount","type":"uint256","indexed":false,"internalType":"uint256"}],"anonymous":false},{"type":"event","name":"Approval","inputs":[{"name":"owner","type":"address","indexed":true,"internalType":"address"},{"name":"approved","type":"address","indexed":true,"internalType":"address"},{"name":"tokenId","type":"uint256","indexed":true,"internalType":"uint256"}],"anonymous":false},{"type":"event","name":"ApprovalForAll","inputs":[{"name":"owner","type":"address","indexed":true,"internalType":"address"},{"name":"operator","type":"address","indexed":true,"internalType":"address"},{"name":"approved","type":"bool","indexed":false,"internalType":"bool"}],"anonymous":false},{"type":"event","name":"BatchMetadataUpdate","inputs":[{"name":"_fromTokenId","type":"uint256","indexed":false,"internalType":"uint256"},{"name":"_toTokenId","type":"uint256","indexed":false,"internalType":"uint256"}],"anonymous":false},{"type":"event","name":"INFTMinted","inputs":[{"name":"tokenId","type":"uint256","indexed":true,"internalType":"uint256"},{"name":"owner","type":"address","indexed":true,"internalType":"address"},{"name":"knowledgeHash","type":"string","indexed":false,"internalType":"string"}],"anonymous":false},{"type":"event","name":"KnowledgeAdded","inputs":[{"name":"tokenId","type":"uint256","indexed":true,"internalType":"uint256"},{"name":"knowledgeHash","type":"string","indexed":false,"internalType":"string"}],"anonymous":false},{"type":"event","name":"MetadataUpdate","inputs":[{"name":"_tokenId","type":"uint256","indexed":false,"internalType":"uint256"}],"anonymous":false},{"type":"event","name":"OwnershipTransferred","inputs":[{"name":"previousOwner","type":"address","indexed":true,"internalType":"address"},{"name":"newOwner","type":"address","indexed":true,"internalType":"address"}],"anonymous":false},{"type":"event","name":"Transfer","inputs":[{"name":"from","type":"address","indexed":true,"internalType":"address"},{"name":"to","type":"address","indexed":true,"internalType":"address"},{"name":"tokenId","type":"uint256","indexed":true,"internalType":"uint256"}],"anonymous":false},{"type":"error","name":"ERC721IncorrectOwner","inputs":[{"name":"sender","type":"address","internalType":"address"},{"name":"tokenId","type":"uint256","internalType":"uint256"},{"name":"owner","type":"address","internalType":"address"}]},{"type":"error","name":"ERC721InsufficientApproval","inputs":[{"name":"operator","type":"address","internalType":"address"},{"name":"tokenId","type":"uint256","internalType":"uint256"}]},{"type":"error","name":"ERC721InvalidApprover","inputs":[{"name":"approver","type":"address","internalType":"address"}]},{"type":"error","name":"ERC721InvalidOperator","inputs":[{"name":"operator","type":"address","internalType":"address"}]},{"type":"error","name":"ERC721InvalidOwner","inputs":[{"name":"owner","type":"address","internalType":"address"}]},{"type":"error","name":"ERC721InvalidReceiver","inputs":[{"name":"receiver","type":"address","internalType":"address"}]},{"type":"error","name":"ERC721InvalidSender","inputs":[{"name":"sender","type":"address","internalType":"address"}]},{"type":"error","name":"ERC721NonexistentToken","inputs":[{"name":"tokenId","type":"uint256","internalType":"uint256"}]},{"type":"error","name":"OwnableInvalidOwner","inputs":[{"name":"owner","type":"address","internalType":"address"}]},{"type":"error","name":"OwnableUnauthorizedAccount","inputs":[{"name":"account","type":"address","internalType":"address"}]},{"type":"error","name":"ReentrancyGuardReentrantCall","inputs":[]}],"bytecode":{"object":"0x608060405234801562000010575f80fd5b50336040518060400160405280600e81526020016d125b9d195b1b1a599e481253919560921b81525060405180604001604052806005815260200164125253919560da1b815250815f9081620000679190620001af565b506001620000768282620001af565b5050506001600160a01b038116620000a757604051631e4fbdf760e01b81525f600482015260240160405180910390fd5b620000b281620000be565b50600160085562000277565b600780546001600160a01b038381166001600160a01b0319831681179093556040519116919082907f8be0079c531659141344cd1fd0a4f28419497f9722a3daafe3b4186f6b6457e0905f90a35050565b634e487b7160e01b5f52604160045260245ffd5b600181811c908216806200013857607f821691505b6020821081036200015757634e487b7160e01b5f52602260045260245ffd5b50919050565b601f821115620001aa575f81815260208120601f850160051c81016020861015620001855750805b601f850160051c820191505b81811015620001a65782815560010162000191565b5050505b505050565b81516001600160401b03811115620001cb57620001cb6200010f565b620001e381620001dc845462000123565b846200015d565b602080601f83116001811462000219575f8415620002015750858301515b5f19600386901b1c1916600185901b178555620001a6565b5f85815260208120601f198616915b82811015620002495788860151825594840194600190910190840162000228565b50858210156200026757878501515f19600388901b60f8161c191681555b5050505050600190811b01905550565b61300d80620002855f395ff3fe608060405234801561000f575f80fd5b50600436106101f2575f3560e01c806370a0823111610114578063a7da01fc116100a9578063c815b61d11610079578063c815b61d14610482578063c87b56dd14610495578063e3356a7a146104a8578063e985e9c5146104cc578063f2fde38b146104df575f80fd5b8063a7da01fc14610429578063b79759721461043c578063b88d4fde1461045c578063ba1133501461046f575f80fd5b80639246d058116100e45780639246d058146103db57806395d89b41146103ee578063a22cb465146103f6578063a329c71414610409575f80fd5b806370a082311461039c578063715018a6146103af5780637c2f7d2e146103b75780638da5cb5b146103ca575f80fd5b806323b872dd1161018a57806342966c681161015a57806342966c681461034357806351e904f21461035657806356ff1cdf146103765780636352211e14610389575f80fd5b806323b872dd146102e65780633d93eec7146102f95780633eddf96d1461031d57806342842e0e14610330575f80fd5b806314f3b77b116101c557806314f3b77b14610273578063178c2f5f1461028657806318160ddd146102b45780631a9e69b1146102c6575f80fd5b806301ffc9a7146101f657806306fdde031461021e578063081812fc14610233578063095ea7b31461025e575b5f80fd5b610209610204366004612634565b6104f2565b60405190151581526020015b60405180910390f35b610226610502565b604051610215919061269c565b6102466102413660046126ae565b610591565b6040516001600160a01b039091168152602001610215565b61027161026c3660046126e0565b6105b8565b005b6102716102813660046127e5565b6105c7565b6102096102943660046128c3565b8051602081830181018051600d8252928201919093012091525460ff1681565b6009545b604051908152602001610215565b6102d96102d43660046126ae565b610868565b60405161021591906128f5565b6102716102f436600461299a565b610a48565b61030c6103073660046126ae565b610ad1565b6040516102159594939291906129d3565b6102b861032b3660046126e0565b610b93565b61027161033e36600461299a565b610bbe565b6102716103513660046126ae565b610bdd565b6103696103643660046126ae565b610dde565b6040516102159190612a62565b6102716103843660046126ae565b611009565b6102466103973660046126ae565b61108f565b6102b86103aa366004612ad9565b611099565b6102716110de565b6102096103c53660046128c3565b6110f1565b6007546001600160a01b0316610246565b6102b86103e9366004612af2565b61111b565b6102266113b2565b610271610404366004612b85565b6113c1565b61041c610417366004612ad9565b6113cc565b6040516102159190612bb6565b6102716104373660046126ae565b611435565b61044f61044a3660046126ae565b6114be565b6040516102159190612bf9565b61027161046a366004612c0b565b6115c4565b61027161047d366004612c76565b6115dc565b610271610490366004612c76565b61166f565b6102266104a33660046126ae565b6117ef565b6104bb6104b6366004612cba565b6117fa565b604051610215959493929190612cda565b6102096104da366004612d1e565b611956565b6102716104ed366004612ad9565b611983565b5f6104fc826119c0565b92915050565b60605f805461051090612d46565b80601f016020809104026020016040519081016040528092919081815260200182805461053c90612d46565b80156105875780601f1061055e57610100808354040283529160200191610587565b820191905f5260205f20905b81548152906001019060200180831161056a57829003601f168201915b5050505050905090565b5f61059b826119e4565b505f828152600460205260409020546001600160a01b03166104fc565b6105c3828233611a1b565b5050565b82336105d28261108f565b6001600160a01b0316146106015760405162461bcd60e51b81526004016105f890612d78565b60405180910390fd5b835f61060c82611a28565b6001600160a01b0316036106325760405162461bcd60e51b81526004016105f890612da1565b5f84511161067c5760405162461bcd60e51b815260206004820152601760248201527612db9bdddb195919d9481a185cda081c995c5d5a5c9959604a1b60448201526064016105f8565b600d8460405161068c9190612dcf565b9081526040519081900360200190205460ff16156106ec5760405162461bcd60e51b815260206004820152601b60248201527f4b6e6f776c65646765206861736820616c72656164792075736564000000000060448201526064016105f8565b5f858152600a602052604090206004015460ff166107455760405162461bcd60e51b81526020600482015260166024820152754149207374617465206973206e6f742061637469766560501b60448201526064016105f8565b5f858152600a602090815260408220600190810180549182018155835291200161076f8582612e2f565b505f858152600a6020908152604080832042600390910155600b8252822080546001810182559083529120845185926005029091019081906107b19082612e2f565b5060208201516001820155604082015160028201906107d09082612e2f565b50606082015160038201556080909101516004909101805460ff1916911515919091179055604051600190600d90610809908790612dcf565b908152604051908190036020018120805492151560ff199093169290921790915585907ffd5e5a7cf0d8f7f9d7913423013b2631ed077c79dec6f082b95fe336f35112ad9061085990879061269c565b60405180910390a25050505050565b6060815f61087582611a28565b6001600160a01b03160361089b5760405162461bcd60e51b81526004016105f890612da1565b5f838152600b6020908152604080832080548251818502810185019093528083529193909284015b82821015610a3b578382905f5260205f2090600502016040518060a00160405290815f820180546108f390612d46565b80601f016020809104026020016040519081016040528092919081815260200182805461091f90612d46565b801561096a5780601f106109415761010080835404028352916020019161096a565b820191905f5260205f20905b81548152906001019060200180831161094d57829003601f168201915b505050505081526020016001820154815260200160028201805461098d90612d46565b80601f01602080910402602001604051908101604052809291908181526020018280546109b990612d46565b8015610a045780601f106109db57610100808354040283529160200191610a04565b820191905f5260205f20905b8154815290600101906020018083116109e757829003601f168201915b5050509183525050600382015460208083019190915260049092015460ff16151560409091015290825260019290920191016108c3565b5050505091505b50919050565b6001600160a01b038216610a7157604051633250574960e11b81525f60048201526024016105f8565b5f610a7d838333611a42565b9050836001600160a01b0316816001600160a01b031614610acb576040516364283d7b60e01b81526001600160a01b03808616600483015260248201849052821660448201526064016105f8565b50505050565b600a6020525f9081526040902080548190610aeb90612d46565b80601f0160208091040260200160405190810160405280929190818152602001828054610b1790612d46565b8015610b625780601f10610b3957610100808354040283529160200191610b62565b820191905f5260205f20905b815481529060010190602001808311610b4557829003601f168201915b50505050600283015460038401546004909401549293909290915060ff81169061010090046001600160a01b031685565b600c602052815f5260405f208181548110610bac575f80fd5b905f5260205f20015f91509150505481565b610bd883838360405180602001604052805f8152506115c4565b505050565b610bf0610be982611a28565b3383611ba8565b610c355760405162461bcd60e51b81526020600482015260166024820152752737ba1030baba3437b934bd32b2103a3790313ab93760511b60448201526064016105f8565b5f818152600a6020908152604080832060010180548251818502810185019093528083529192909190849084015b82821015610d0b578382905f5260205f20018054610c8090612d46565b80601f0160208091040260200160405190810160405280929190818152602001828054610cac90612d46565b8015610cf75780601f10610cce57610100808354040283529160200191610cf7565b820191905f5260205f20905b815481529060010190602001808311610cda57829003601f168201915b505050505081526020019060010190610c63565b505050509050610d1a82611c0c565b5f828152600a6020526040812090610d3282826124e7565b610d3f600183015f61251e565b505f6002820181905560038201819055600490910180546001600160a81b0319169055828152600b60205260408120610d7791612539565b5f5b8151811015610bd8575f600d838381518110610d9757610d97612eeb565b6020026020010151604051610dac9190612dcf565b908152604051908190036020019020805491151560ff1990921691909117905580610dd681612f13565b915050610d79565b610e1e6040518060c0016040528060608152602001606081526020015f81526020015f81526020015f151581526020015f6001600160a01b031681525090565b815f610e2982611a28565b6001600160a01b031603610e4f5760405162461bcd60e51b81526004016105f890612da1565b5f838152600a602052604090819020815160c08101909252805482908290610e7690612d46565b80601f0160208091040260200160405190810160405280929190818152602001828054610ea290612d46565b8015610eed5780601f10610ec457610100808354040283529160200191610eed565b820191905f5260205f20905b815481529060010190602001808311610ed057829003601f168201915b5050505050815260200160018201805480602002602001604051908101604052809291908181526020015f905b82821015610fc2578382905f5260205f20018054610f3790612d46565b80601f0160208091040260200160405190810160405280929190818152602001828054610f6390612d46565b8015610fae5780601f10610f8557610100808354040283529160200191610fae565b820191905f5260205f20905b815481529060010190602001808311610f9157829003601f168201915b505050505081526020019060010190610f1a565b50505090825250600282015460208201526003820154604082015260049091015460ff81161515606083015261010090046001600160a01b03166080909101529392505050565b80336110148261108f565b6001600160a01b03161461103a5760405162461bcd60e51b81526004016105f890612d78565b815f61104582611a28565b6001600160a01b03160361106b5760405162461bcd60e51b81526004016105f890612da1565b50505f908152600a6020526040902060048101805460ff1916905542600390910155565b5f6104fc826119e4565b5f6001600160a01b0382166110c3576040516322718ad960e21b81525f60048201526024016105f8565b506001600160a01b03165f9081526003602052604090205490565b6110e6611c44565b6110ef5f611c71565b565b5f600d826040516111029190612dcf565b9081526040519081900360200190205460ff1692915050565b5f808351116111665760405162461bcd60e51b815260206004820152601760248201527612db9bdddb195919d9481a185cda081c995c5d5a5c9959604a1b60448201526064016105f8565b600d836040516111769190612dcf565b9081526040519081900360200190205460ff16156111d65760405162461bcd60e51b815260206004820152601b60248201527f4b6e6f776c65646765206861736820616c72656164792075736564000000000060448201526064016105f8565b600980549081905f6111e783612f13565b91905055506111f68682611cc2565b6112008186611cdb565b6040805160018082528183019092525f91816020015b606081526020019060019003908161121657905050905084815f8151811061124057611240612eeb565b6020908102919091018101919091526040805160c0810182528681528083018490525f818301819052426060830152600160808301526001600160a01b038b1660a0830152858152600a90935291208151819061129d9082612e2f565b5060208281015180516112b69260018501920190612557565b5060408281015160028301556060830151600383015560808301516004909201805460a0909401516001600160a01b031661010002610100600160a81b0319931515939093166001600160a81b0319909416939093179190911790915551600190600d90611325908890612dcf565b9081526040805160209281900383018120805460ff1916941515949094179093556001600160a01b038a165f818152600c84529182208054600181018255908352929091209091018490559083907fa0aaa011c7e3f382a52d0fd58bc5cc80ce5c38969a1c2c1a628872a3f6b2b621906113a090899061269c565b60405180910390a35095945050505050565b60606001805461051090612d46565b6105c3338383611d2a565b6001600160a01b0381165f908152600c602090815260409182902080548351818402810184019094528084526060939283018282801561142957602002820191905f5260205f20905b815481526020019060010190808311611415575b50505050509050919050565b80336114408261108f565b6001600160a01b0316146114665760405162461bcd60e51b81526004016105f890612d78565b815f61147182611a28565b6001600160a01b0316036114975760405162461bcd60e51b81526004016105f890612da1565b50505f908152600a6020526040902060048101805460ff1916600117905542600390910155565b6060815f6114cb82611a28565b6001600160a01b0316036114f15760405162461bcd60e51b81526004016105f890612da1565b5f838152600a6020908152604080832060010180548251818502810185019093528083529193909284015b82821015610a3b578382905f5260205f2001805461153990612d46565b80601f016020809104026020016040519081016040528092919081815260200182805461156590612d46565b80156115b05780601f10611587576101008083540402835291602001916115b0565b820191905f5260205f20905b81548152906001019060200180831161159357829003601f168201915b50505050508152602001906001019061151c565b6115cf848484610a48565b610acb3385858585611dc8565b81336115e78261108f565b6001600160a01b03161461160d5760405162461bcd60e51b81526004016105f890612d78565b825f61161882611a28565b6001600160a01b03160361163e5760405162461bcd60e51b81526004016105f890612da1565b5f848152600a602052604090206116558482612e2f565b5050505f91825250600a6020526040902042600390910155565b813361167a8261108f565b6001600160a01b0316146116a05760405162461bcd60e51b81526004016105f890612d78565b825f6116ab82611a28565b6001600160a01b0316036116d15760405162461bcd60e51b81526004016105f890612da1565b5f848152600a602052604090206004015460ff1661172a5760405162461bcd60e51b81526020600482015260166024820152754149207374617465206973206e6f742061637469766560501b60448201526064016105f8565b5f848152600a6020526040812060020180549161174683612f13565b90915550505f848152600a6020526040908190204260039091015551339085907f8b1c2d805c37ebaa3454275243e164eb366ea9fbe1b9a771a82eb7826a6635899061179390879061269c565b60405180910390a3837faaf8dbe2b88ba72af81e9719231f327359ebabb74fdfb0b0416c2076103df713600a5f8781526020019081526020015f20600201546040516117e191815260200190565b60405180910390a250505050565b60606104fc82611ef0565b600b602052815f5260405f208181548110611813575f80fd5b905f5260205f2090600502015f9150915050805f01805461183390612d46565b80601f016020809104026020016040519081016040528092919081815260200182805461185f90612d46565b80156118aa5780601f10611881576101008083540402835291602001916118aa565b820191905f5260205f20905b81548152906001019060200180831161188d57829003601f168201915b5050505050908060010154908060020180546118c590612d46565b80601f01602080910402602001604051908101604052809291908181526020018280546118f190612d46565b801561193c5780601f106119135761010080835404028352916020019161193c565b820191905f5260205f20905b81548152906001019060200180831161191f57829003601f168201915b50505050600383015460049093015491929160ff16905085565b6001600160a01b039182165f90815260056020908152604080832093909416825291909152205460ff1690565b61198b611c44565b6001600160a01b0381166119b457604051631e4fbdf760e01b81525f60048201526024016105f8565b6119bd81611c71565b50565b5f6001600160e01b03198216632483248360e11b14806104fc57506104fc82611ff3565b5f806119ef83611a28565b90506001600160a01b0381166104fc57604051637e27328960e01b8152600481018490526024016105f8565b610bd88383836001612042565b5f908152600260205260409020546001600160a01b031690565b5f80611a4d84611a28565b90505f611a5b868686612146565b90506001600160a01b03821615801590611a7d57506001600160a01b03861615155b15611b9f575f858152600a6020908152604080832060040180546001600160a01b03808c1661010002610100600160a81b03199092169190911790915585168352600c9091528120905b8154811015611b725786828281548110611ae357611ae3612eeb565b905f5260205f20015403611b605781548290611b0190600190612f2b565b81548110611b1157611b11612eeb565b905f5260205f200154828281548110611b2c57611b2c612eeb565b905f5260205f20018190555081805480611b4857611b48612f3e565b600190038181905f5260205f20015f90559055611b72565b80611b6a81612f13565b915050611ac7565b50506001600160a01b0386165f908152600c60209081526040822080546001810182559083529120018590555b95945050505050565b5f6001600160a01b03831615801590611c045750826001600160a01b0316846001600160a01b03161480611be15750611be18484611956565b80611c0457505f828152600460205260409020546001600160a01b038481169116145b949350505050565b5f611c185f835f611a42565b90506001600160a01b0381166105c357604051637e27328960e01b8152600481018390526024016105f8565b6007546001600160a01b031633146110ef5760405163118cdaa760e01b81523360048201526024016105f8565b600780546001600160a01b038381166001600160a01b0319831681179093556040519116919082907f8be0079c531659141344cd1fd0a4f28419497f9722a3daafe3b4186f6b6457e0905f90a35050565b6105c3828260405180602001604052805f815250612233565b5f828152600660205260409020611cf28282612e2f565b506040518281527ff8e1a15aba9398e019f0b49df1a4fde98ee17ae345cb5f6b5e2c27f5033e8ce79060200160405180910390a15050565b6001600160a01b038216611d5c57604051630b61174360e31b81526001600160a01b03831660048201526024016105f8565b6001600160a01b038381165f81815260056020908152604080832094871680845294825291829020805460ff191686151590811790915591519182527f17307eab39ab6107e8899845ad3d59bd9653f200f220920489ca2b5937696c31910160405180910390a3505050565b6001600160a01b0383163b15611ee957604051630a85bd0160e11b81526001600160a01b0384169063150b7a0290611e0a908890889087908790600401612f52565b6020604051808303815f875af1925050508015611e44575060408051601f3d908101601f19168201909252611e4191810190612f8e565b60015b611eab573d808015611e71576040519150601f19603f3d011682016040523d82523d5f602084013e611e76565b606091505b5080515f03611ea357604051633250574960e11b81526001600160a01b03851660048201526024016105f8565b805160208201fd5b6001600160e01b03198116630a85bd0160e11b14611ee757604051633250574960e11b81526001600160a01b03851660048201526024016105f8565b505b5050505050565b6060611efb826119e4565b505f8281526006602052604081208054611f1490612d46565b80601f0160208091040260200160405190810160405280929190818152602001828054611f4090612d46565b8015611f8b5780601f10611f6257610100808354040283529160200191611f8b565b820191905f5260205f20905b815481529060010190602001808311611f6e57829003601f168201915b505050505090505f611fa760408051602081019091525f815290565b905080515f03611fb8575092915050565b815115611fea578082604051602001611fd2929190612fa9565b60405160208183030381529060405292505050919050565b611c048461224a565b5f6001600160e01b031982166380ac58cd60e01b148061202357506001600160e01b03198216635b5e139f60e01b145b806104fc57506301ffc9a760e01b6001600160e01b03198316146104fc565b808061205657506001600160a01b03821615155b15612117575f612065846119e4565b90506001600160a01b038316158015906120915750826001600160a01b0316816001600160a01b031614155b80156120a457506120a28184611956565b155b156120cd5760405163a9fbf51f60e01b81526001600160a01b03841660048201526024016105f8565b81156121155783856001600160a01b0316826001600160a01b03167f8c5be1e5ebec7d5bd14f71427d1e84f3dd0314c0f7b2291e5b200ac8c7c3b92560405160405180910390a45b505b50505f90815260046020526040902080546001600160a01b0319166001600160a01b0392909216919091179055565b5f8061215184611a28565b90506001600160a01b0383161561216d5761216d8184866122bb565b6001600160a01b038116156121a7576121885f855f80612042565b6001600160a01b0381165f90815260036020526040902080545f190190555b6001600160a01b038516156121d5576001600160a01b0385165f908152600360205260409020805460010190555b5f8481526002602052604080822080546001600160a01b0319166001600160a01b0389811691821790925591518793918516917fddf252ad1be2c89b69c2b068fc378daa952ba7f163c4a11628f55a4df523b3ef91a4949350505050565b61223d838361231f565b610bd8335f858585611dc8565b6060612255826119e4565b505f61226b60408051602081019091525f815290565b90505f8151116122895760405180602001604052805f8152506122b4565b8061229384612380565b6040516020016122a4929190612fa9565b6040516020818303038152906040525b9392505050565b6122c6838383611ba8565b610bd8576001600160a01b0383166122f457604051637e27328960e01b8152600481018290526024016105f8565b60405163177e802f60e01b81526001600160a01b0383166004820152602481018290526044016105f8565b6001600160a01b03821661234857604051633250574960e11b81525f60048201526024016105f8565b5f61235483835f611a42565b90506001600160a01b03811615610bd8576040516339e3563760e11b81525f60048201526024016105f8565b60605f61238c83612410565b60010190505f8167ffffffffffffffff8111156123ab576123ab612708565b6040519080825280601f01601f1916602001820160405280156123d5576020820181803683370190505b5090508181016020015b5f19016f181899199a1a9b1b9c1cb0b131b232b360811b600a86061a8153600a85049450846123df57509392505050565b5f8072184f03e93ff9f4daa797ed6e38ed64bf6a1f0160401b831061244e5772184f03e93ff9f4daa797ed6e38ed64bf6a1f0160401b830492506040015b6d04ee2d6d415b85acef8100000000831061247a576d04ee2d6d415b85acef8100000000830492506020015b662386f26fc10000831061249857662386f26fc10000830492506010015b6305f5e10083106124b0576305f5e100830492506008015b61271083106124c457612710830492506004015b606483106124d6576064830492506002015b600a83106104fc5760010192915050565b5080546124f390612d46565b5f825580601f10612502575050565b601f0160209004905f5260205f20908101906119bd91906125ab565b5080545f8255905f5260205f20908101906119bd91906125bf565b5080545f8255600502905f5260205f20908101906119bd91906125db565b828054828255905f5260205f2090810192821561259b579160200282015b8281111561259b578251829061258b9082612e2f565b5091602001919060010190612575565b506125a79291506125bf565b5090565b5b808211156125a7575f81556001016125ac565b808211156125a7575f6125d282826124e7565b506001016125bf565b808211156125a7575f6125ee82826124e7565b600182015f9055600282015f61260491906124e7565b505f600382015560048101805460ff191690556005016125db565b6001600160e01b0319811681146119bd575f80fd5b5f60208284031215612644575f80fd5b81356122b48161261f565b5f5b83811015612669578181015183820152602001612651565b50505f910152565b5f815180845261268881602086016020860161264f565b601f01601f19169290920160200192915050565b602081525f6122b46020830184612671565b5f602082840312156126be575f80fd5b5035919050565b80356001600160a01b03811681146126db575f80fd5b919050565b5f80604083850312156126f1575f80fd5b6126fa836126c5565b946020939093013593505050565b634e487b7160e01b5f52604160045260245ffd5b60405160a0810167ffffffffffffffff8111828210171561273f5761273f612708565b60405290565b5f67ffffffffffffffff8084111561275f5761275f612708565b604051601f8501601f19908116603f0116810190828211818310171561278757612787612708565b8160405280935085815286868601111561279f575f80fd5b858560208301375f602087830101525050509392505050565b5f82601f8301126127c7575f80fd5b6122b483833560208501612745565b803580151581146126db575f80fd5b5f805f606084860312156127f7575f80fd5b83359250602084013567ffffffffffffffff80821115612815575f80fd5b612821878388016127b8565b93506040860135915080821115612836575f80fd5b9085019060a08288031215612849575f80fd5b61285161271c565b82358281111561285f575f80fd5b61286b898286016127b8565b82525060208301356020820152604083013582811115612889575f80fd5b612895898286016127b8565b604083015250606083013560608201526128b1608084016127d6565b60808201528093505050509250925092565b5f602082840312156128d3575f80fd5b813567ffffffffffffffff8111156128e9575f80fd5b611c04848285016127b8565b5f6020808301818452808551808352604092508286019150828160051b8701018488015f5b8381101561298c57603f19898403018552815160a0815181865261294082870182612671565b915050888201518986015287820151858203898701526129608282612671565b60608481015190880152608093840151151593909601929092525050938601939086019060010161291a565b509098975050505050505050565b5f805f606084860312156129ac575f80fd5b6129b5846126c5565b92506129c3602085016126c5565b9150604084013590509250925092565b60a081525f6129e560a0830188612671565b602083019690965250604081019390935290151560608301526001600160a01b0316608090910152919050565b5f815180845260208085019450848260051b86018286015f5b85811015612a55578383038952612a43838351612671565b98850198925090840190600101612a2b565b5090979650505050505050565b602081525f825160c06020840152612a7d60e0840182612671565b90506020840151601f19848303016040850152612a9a8282612a12565b91505060408401516060840152606084015160808401526080840151151560a084015260018060a01b0360a08501511660c08401528091505092915050565b5f60208284031215612ae9575f80fd5b6122b4826126c5565b5f805f8060808587031215612b05575f80fd5b612b0e856126c5565b9350602085013567ffffffffffffffff80821115612b2a575f80fd5b612b36888389016127b8565b94506040870135915080821115612b4b575f80fd5b612b57888389016127b8565b93506060870135915080821115612b6c575f80fd5b50612b79878288016127b8565b91505092959194509250565b5f8060408385031215612b96575f80fd5b612b9f836126c5565b9150612bad602084016127d6565b90509250929050565b602080825282518282018190525f9190848201906040850190845b81811015612bed57835183529284019291840191600101612bd1565b50909695505050505050565b602081525f6122b46020830184612a12565b5f805f8060808587031215612c1e575f80fd5b612c27856126c5565b9350612c35602086016126c5565b925060408501359150606085013567ffffffffffffffff811115612c57575f80fd5b8501601f81018713612c67575f80fd5b612b7987823560208401612745565b5f8060408385031215612c87575f80fd5b82359150602083013567ffffffffffffffff811115612ca4575f80fd5b612cb0858286016127b8565b9150509250929050565b5f8060408385031215612ccb575f80fd5b50508035926020909101359150565b60a081525f612cec60a0830188612671565b8660208401528281036040840152612d048187612671565b606084019590955250509015156080909101529392505050565b5f8060408385031215612d2f575f80fd5b612d38836126c5565b9150612bad602084016126c5565b600181811c90821680612d5a57607f821691505b602082108103610a4257634e487b7160e01b5f52602260045260245ffd5b6020808252600f908201526e2737ba103a37b5b2b71037bbb732b960891b604082015260600190565b602080825260149082015273151bdad95b88191bd95cc81b9bdd08195e1a5cdd60621b604082015260600190565b5f8251612de081846020870161264f565b9190910192915050565b601f821115610bd8575f81815260208120601f850160051c81016020861015612e105750805b601f850160051c820191505b81811015611ee757828155600101612e1c565b815167ffffffffffffffff811115612e4957612e49612708565b612e5d81612e578454612d46565b84612dea565b602080601f831160018114612e90575f8415612e795750858301515b5f19600386901b1c1916600185901b178555611ee7565b5f85815260208120601f198616915b82811015612ebe57888601518255948401946001909101908401612e9f565b5085821015612edb57878501515f19600388901b60f8161c191681555b5050505050600190811b01905550565b634e487b7160e01b5f52603260045260245ffd5b634e487b7160e01b5f52601160045260245ffd5b5f60018201612f2457612f24612eff565b5060010190565b818103818111156104fc576104fc612eff565b634e487b7160e01b5f52603160045260245ffd5b6001600160a01b03858116825284166020820152604081018390526080606082018190525f90612f8490830184612671565b9695505050505050565b5f60208284031215612f9e575f80fd5b81516122b48161261f565b5f8351612fba81846020880161264f565b835190830190612fce81836020880161264f565b0194935050505056fea26469706673582212201714e837bc2199866436eb48748891649133ba895b5046ac7ce3ba7630cf514a64736f6c63430008140033","linkReferences":{}},"methodIdentifiers":{"addKnowledge(uint256,string,(string,uint256,string,uint256,bool))":"14f3b77b","aiStates(uint256)":"3d93eec7","approve(address,uint256)":"095ea7b3","balanceOf(address)":"70a08231","burn(uint256)":"42966c68","deactivateINFT(uint256)":"56ff1cdf","getAIState(uint256)":"51e904f2","getApproved(uint256)":"081812fc","getKnowledgeHashes(uint256)":"b7975972","getKnowledgeMetadata(uint256)":"1a9e69b1","getUserINFTs(address)":"a329c714","isApprovedForAll(address,address)":"e985e9c5","isKnowledgeHashUsed(string)":"7c2f7d2e","knowledgeMetadata(uint256,uint256)":"e3356a7a","mintINFT(address,string,string,string)":"9246d058","name()":"06fdde03","owner()":"8da5cb5b","ownerOf(uint256)":"6352211e","reactivateINFT(uint256)":"a7da01fc","recordInteraction(uint256,string)":"c815b61d","renounceOwnership()":"715018a6","safeTransferFrom(address,address,uint256)":"42842e0e","safeTransferFrom(address,address,uint256,bytes)":"b88d4fde","setApprovalForAll(address,bool)":"a22cb465","supportsInterface(bytes4)":"01ffc9a7","symbol()":"95d89b41","tokenURI(uint256)":"c87b56dd","totalSupply()":"18160ddd","transferFrom(address,address,uint256)":"23b872dd","transferOwnership(address)":"f2fde38b","updateModelVersion(uint256,string)":"ba113350","usedKnowledgeHashes(string)":"178c2f5f","userINFTs(address,uint256)":"3eddf96d"},"id":0}